:020000040800F2
:10000000204B00204D440008ED420008EF4200085C
:10001000F1420008F3420008F54200080000000029
:10002000000000000000000000000000F74200088F
:10003000F942000800000000FB420008FD420008F1
:100040007144000875440008794400087D440008A4
:100050008144000885440008894400088D44000854
:100060009144000895440008994400089D44000804
:10007000A1440008A5440008A9440008AD440008B4
:10008000B1440008B5440008B9440008BD44000864
:10009000C1440008C5440008C9440008CD44000814
:1000A000D1440008D5440008D9440008DD440008C4
:1000B000E1440008E544000801430008E944000861
:1000C000ED440008F1440008F5440008F944000834
:1000D000FD440008014500080545000809450008E1
:1000E0000D45000811450008154500081945000890
:1000F0001D45000821450008254500082945000840
:100100002D450008314500083545000839450008EF
:100110003D4500084145000845450008494500089F
:100120004D4500085145000855450008594500084F
:100130005D450008614500086545000869450008FF
:100140006D45000871450008754500081543000815
:10015000794500087D45000881450008854500086F
:10016000894500088D45000891450008954500081F
:10017000994500089D450008A145000800000000C1
:10018000A5450008A94500080EB418B5044608980E
:10019000012817D1A06B20F48030A063E168DFF85C
:1001A00058080140E160E16821F44011E1600F98D6
:1001B000012803D1E06840F48010E060204600F0A0
:1001C00006FC0FE0E06840F04000E060204600F0F0
:1001D000FEFB0C990029A16B0CBF41F4803121F486
:1001E0008031A1630699012907D1A16841F0060178
:1001F000A160A16841F02001A16012BC5DF810FB74
:1002000010B5022A58D1DFF8F427DFF8F437521876
:100210009A4238BF4FF4705150D3DFF8E827DFF827
:10022000E83752189A4238BF4FF4605146D3DFF88E
:10023000DC27DFF8DC3752189A4238BF4FF45051B0
:100240003CD3DFF8D027DFF8D03752189A4238BFB6
:100250004FF4405132D3DFF8C427DFF8C4375218C7
:100260009A4238BF4FF4305128D3DFF8D827DFF84F
:10027000D83752189A4238BF4FF420511ED3DFF8B6
:10028000CC27DFF8CC3752189A4215D3DFF8C44791
:10029000DFF8C4276418944238BF4FF400510DD3DF
:1002A000DFF8B827DFF8B837511899422CBF4FF460
:1002B000C0514FF4E05101E04FF41051C26822F4F4
:1002C0007052C260C2681143C160002010BD8168D5
:1002D00041F0010102E08168490849008160002085
:1002E000704780B5C26822F0C0420129C26008D1BF
:1002F000C16841F00051C160322000F0C3FB002012
:1003000002BD19B9C16841F08041F4E7012002BD86
:100310000EB42DE9F04305460446002600210020D6
:1003200004EB8102491C0F29C2F80401F8D3DDF85F
:100330004490B9F1000F05F500670AD1786840F0E4
:1003400002007860A06B40F40010A06300F071FB25
:1003500006E0A06B20F40010A063A06B40F4002026
:1003600005F56061A0630E603A683A600C98012858
:1003700005D1099A002A14BF0121002100E00321C0
:10038000204600F08BF81021204600F06BF800B1F9
:100390000126204600F075F800B1012600203861E2
:1003A00078612A46F8614FF67F334FF0904C4FF05A
:1003B000006E002503E00D600D618B60401C079905
:1003C000884211D202EB401101F51061D1F8008092
:1003D000B8F1000FEFD5002806BF02F51068C8F885
:1003E00000E0C1F800C0E7E7002003E00D600D6108
:1003F0008B60401C0799884211D202EB401101F535
:100400003061D1F80080B8F1000FEFD5002806BFA9
:1004100002F53068C8F800E0C1F800C0E7E73869C5
:1004200020F480703861A5616FF0804060610A98A7
:1004300000F0F8FADFF82C060143A1610D9818B11D
:10044000A06940F00800A061B9F1010F05D1A069D1
:1004500040F0804040F00400A0613046BDE8F00369
:100460005DF810FB890141F020010161DFF8F8150A
:10047000491E04D002699306FAD400207047032075
:10048000704710210161DFF8E015491E04D00269B0
:10049000D306FAD4002070470320704700F50060AF
:1004A0000268114313E200F50060806810F0060056
:1004B00006D0022818BF062801D1022070470F205D
:1004C000704770B50C784E782546012304F00F0470
:1004D00000EB451203FA04F4012E00F50060DFF88A
:1004E0008C350DD1C669A4B2344302F51062C461E3
:1004F0001068040412D400F013F844EA85540AE0AA
:10050000C56945EA044502F53062C5611068040416
:1005100004D400F005F8234303431360002070BDAA
:1005200010688C68C978C4F30A0444EA81447047AF
:1005300030B500F041F810D100F04CF800F026F88A
:10054000ADB2AC43D463D46900F027F824EA0303C6
:10055000D3610268DFF8181514E000F53060046814
:10056000002C01D500F01FF800F010F824EA054433
:10057000D463D46900F029F824EA0344D461026802
:10058000DFF8F0140A400260002030BDD46B0D7813
:1005900005F00F0503FA05F57047097801F00F0122
:1005A0008B409BB27047046844F0006404600568A7
:1005B00045F08045056070470B784C7800F5006287
:1005C00000EB43100123012C7047097801F00F0163
:1005D0008B40704700F510600468002C07D5046854
:1005E00044F000640460056845F08045056070478C
:1005F000F8B50B78DFF88064DFF8807400EB431502
:100600004B78012B00F5006460D14B6905F510654E
:10061000002B2B6909D11F402F612E6946F400265B
:100620002E612B69DB0CDB0422E0DB0CDB042B618D
:100630002B691F402F618B682F69D1F814C09C442F
:10064000ACF1010CBCFBF3F306EAC3463E432E615A
:100650002B694E69C6F3120633432B61CB78012B0D
:1006600007D12B6923F0C0432B612B6943F0005362
:100670002B61012A03D10869002852D050E02B6871
:1006800043F004432B60CE78012E0BD0486900283C
:100690005AD0606B0978012201F00F018A401043A3
:1006A000606351E0A368DC0504D42B6843F0005379
:1006B0002B6003E02C6844F080542C6000920A7890
:1006C0004B69C9689BB200F0A5F83DE005F53065BF
:1006D0002869C00CC0042861286907402F618B6815
:1006E000486940B92869C3F3120303432B612869A1
:1006F00040F400200FE01818401EB0FBF3F080B269
:100700002B6906EAC0461E432E612B698E68704332
:10071000C0F312001843012A286102D1C86800B151
:100720006861C87801280BD1A068C10504D4286885
:1007300040F00050286003E0296841F080512960B2
:10074000286840F0044028600020F2BD30B50B78E6
:10075000DFF8285300EB43144B78012B38D14B6959
:1007600004F51064002B236909D11D40256125691A
:1007700045F4002525612369DB0CDB0414E0DB0C68
:10078000DB04236123691D4025618B684D69AB4201
:1007900088BF2B464B61236943F4002323612369FF
:1007A0004D69C5F312052B43012A236101D1086964
:1007B00028E0236843F0044323604A6942B300F50C
:1007C00000600123426BFFF700FF1A4342631FE002
:1007D00004F530642069C00CC004206123691D4009
:1007E0002561486908B188684861206940F40020A3
:1007F000206120698B68C3F312031843012A20612A
:1008000002D1C86800B16061206840F004402060F7
:10081000002030BDB8B5059C64B9DB1C07E000EBD7
:10082000023751F8045B07F58057641C3D60B4EB58
:10083000930FF4D30020B2BD10B5D21C002305E005
:1008400000F580545B1C246841F8044BB3EB920F15
:10085000F6D3084610BD0A78497800EB421001290A
:100860000CBF00F5106000F530600168002904D469
:100870001AB1016821F080410160026842F400125F
:100880000260002070470A7800EB42104A78012A83
:100890000CBF00F5106000F53060026822F4001211
:1008A0000260C978032918BF022903D1016841F009
:1008B000805101600020704700F500600901026866
:1008C00022F4FE62026001F4FE61036819430160D4
:1008D0000020704700F5606100F500600A6892082A
:1008E00092000A60416821F002010AE000F56061AF
:1008F00000F500600A68920892000A60416841F0C1
:10090000020141600020704701464869896908403A
:10091000704700F500618869C9690840000C70479C
:1009200000F500618869C969084080B270470246D5
:1009300002EB411000F5306002F5006280685169F9
:1009400008407047024602F5006302EB4112186945
:100950005B6B01F00F0102F51062CB40DB01926886
:1009600003F08003184310407047406900F0010015
:10097000704700F5106100F500600A68D20AD202E3
:100980000A60416841F48071BBE710B5036CDFF881
:10099000F040A34200F5306002D30368002B14D46A
:1009A000002303610129046944F4002404610369FC
:1009B00043F018030361036943F0C043036104D1AA
:1009C0004261016841F080210160002010BDDFF824
:1009D00098201146491E0DD00369002BFAD50169F4
:1009E00041F001010161521E04D00169CB07FAD424
:1009F0000020704703207047BFFFBDFF405327FF13
:100A000000350C00401E1BFF40420F0000DC0BFFB6
:100A1000804F1200808CF9FE20D6130060B6E5FEF0
:100A200060E3160018B9A06940F01000A061A16948
:100A30007047A06B20F40020A063A06B20F48020FE
:100A40007047000000D3CEFE40771B00C05BB3FEB2
:100A5000C091210000CA91FE20753800E05459FE73
:100A6000E09C410000383C80410D030000800010F4
:100A7000007833EC0078F3EF0000F81FFFFF07E089
:100A80000B30544F38B5044600F010F814F1010F44
:100A9000054602D004480178641800F007F8401BAE
:100AA000A042FAD331BD00BF0000002001484068D9
:100AB000704700BF0000002070B504008AB04BD022
:100AC000266804F56F75687820B9002129702046E2
:100AD00000F02AFC03206870F16BC8055CBF0021A0
:100AE00021612068FFF7F7FB83B000F048F80EBCE7
:100AF0002068FFF749FB00282CD120680021FFF770
:100B0000F0FB00211C2000260AE010FB01F2224429
:100B10003C32012353701170D180002300F028F87B
:100B200062689142F1D3002109E010FB01F22244F6
:100B300002F5FE7200231170537000F019F862681C
:100B40009142F2D383B000F01AF80EBC2068FFF790
:100B5000DFFB18B102206870012007E084F838003C
:100B6000012169702068FFF7C1FE00200AB070BD46
:100B7000491CD6709360D6605361C9B27047211D7D
:100B80006846342200F0F8BC10B500F0ADFA01D18F
:100B9000022010BD00F0AEFAFFF799FB20689DE23D
:100BA0002DE9F84F054684B02C6801942046FFF7E4
:100BB000DCFE002840F0888200F089FA002800F06E
:100BC000838200F084FA800704D52868416901F027
:100BD0000201416100F07BFAC00635D528688169C1
:100BE00021F0100181611C20266A06F00F014143AB
:100BF000681800F5FE77C6F34340022812D147F685
:100C0000F07006421BD0F968C6F30A122046FFF7BF
:100C100013FEF968BA69C6F30A1001448018F96036
:100C2000B8610CE006280AD1082205F5717120464A
:100C3000FFF702FEB969C6F30A104118B9612868C6
:100C4000816941F01001816100F041FA000340F137
:100C5000B0802868FFF75DFE00242E4605004FF4A3
:100C6000004A48E0002C04BFD6F81002002809D141
:100C700006F5717200211846FFF787FE02E008B101
:100C800020208860E1B2304600F092FB380720D582
:100C90000821C9F808103068DFF83884D0F840B06F
:100CA00000EB441101F53060C345816803D30904AA
:100CB00048BFC0F808A0304600F074FBC34508D315
:100CC0003069012805D1306806F571720121FFF7FE
:100CD0005CFEF80644BF1021C9F80810B80644BFEE
:100CE0002021C9F80810B80444BF4FF40051C9F8D6
:100CF0000810641C6D085BD0E807FAD53068E1B2D3
:100D0000FFF715FE0746019800EB441000F5306927
:100D1000F807BBD50121C9F808103368D3F840C0E3
:100D200003EB441101F530618A68D6F810E0BEF19A
:100D3000010F02F0200030D1130706D5DFF894032D
:100D40008445A3D3120430D4A0E710B120208860DA
:100D50009CE712F0280F99D1DFF87803844501D37E
:100D6000120422D41C206043304400F50170026854
:100D70000969C1F31201521A0261002C416802682C
:100D80000A44426004BFD6F8100200287FF47AAF0C
:100D9000306806F5717201216EE7DFF83CE3F44537
:100DA0007FF460AF12047FF56AAFC1F808A06DE769
:100DB000354600F08CF9400340F1A4802868FFF725
:100DC000AFFD06460198002400F500600390002E58
:100DD00034E0D7F808B0411A8B4588BF8B460BF139
:100DE00003004FEA900A2869C0B200901FFA8BF303
:100DF000F968E2B24846FFF70DFDF868B969584452
:100E00008B44F860C7F818B009EB441000F5106087
:100E1000816989B2514505D37869B969814201D2A6
:100E20000028D6D1B8697969884205D309F50062EE
:100E3000516B029801405163641C760862D0F00740
:100E4000FAD52868E1B2FFF77DFD8046019800EBF6
:100E5000441000F510691C22012104F00F006243C8
:100E60008140AF18C9435FEAC87002911DD503994C
:100E70004A6B029802404A630120C9F808002969B8
:100E800001290ED1B86C796C0144B964002C04BFFF
:100E9000286D002805D1286805F571720121FFF73A
:100EA00074FDE1B2284600F08DFA5FEA087044BF95
:100EB0000821C9F808105FEAC86044BF1021C9F8CA
:100EC00008105FEA486044BF4021C9F808105FEA93
:100ED000887044BF0221C9F808105FEA0860ABD5EA
:100EE0003C37B8697969D5F800908142A4D3D7F826
:100EF00008A0081A824588BF82460AF103004FEA1B
:100F0000900A81E72868019CFFF7FEFC002804F5A1
:100F1000006416D5616849084900616095F8F403DA
:100F2000012806D1002185F8F413284600F055FB6E
:100F300002E0284600F07EFA2868416901F000418D
:100F4000416100F0C4F800050AD5A168C80744BF94
:100F5000284600F05AFA2868416901F400614161AD
:100F600000F0B5F8C00453D56168490849006160D4
:100F700010212868FFF776FA019800214FF67F329A
:100F800018E000EB411303F5106603F53063B2601F
:100F9000491C376827F400173760376847F0006747
:100FA00037609A601E6826F400161E601F6847F0BE
:100FB00000671F606B689942E3D3E06940F001105D
:100FC000E061286B50B1D4F8840040F00B00C4F805
:100FD0008400606C40F00B00606409E0606940F4DC
:100FE000005040F02B006061206940F00B00206150
:100FF00005F57172206820F4FE6020602969286878
:10100000C9B2FFF7C2FC2868416901F4805141610F
:1010100000F05DF8800416D52868FFF7AAFC286860
:10102000FFF741FAE86000F05FFB0146EA682868D4
:10103000D2B2FFF7E5F8284600F0D1F928684169F7
:1010400001F40051416100F042F8000707D528463D
:1010500000F0C1F92868416901F00801416100F020
:1010600036F8C00208D50021284600F0EBF92868C0
:10107000416901F48011416100F029F8800208D52E
:101080000021284600F0DAF92868416901F40011CE
:10109000416100F01CF8400007D5284600F0D6F961
:1010A0002868416901F08041416100F010F8400773
:1010B0000AD529684C68600744BF284600F0CAF981
:1010C000286841680C43446005B0BDE8F08F28688B
:1010D000FFF71ABC0B30544F0A31544FFFF7FAFB9D
:1010E000002084F8BC0310BD044694F8BC2320689B
:1010F000012A7047A36A0122012B84F8BC2306D180
:10110000A269012A03D0826B42F480328263704765
:1011100010B5044694F8BC03012801D1022010BD8B
:10112000012084F8BC0384F838102068FFF7C4FB62
:10113000D6E738B5054601F00F041C2044432819B2
:101140000C0647BF00F13C04012000F5FE740020AE
:1011500001F00F0160702170A260E370607808B147
:101160002178E180022B04BF0020207195F8BC0398
:10117000012801D1022032BD012085F8BC0321469F
:101180002868FFF79EF97CE010B5044601F00F02D5
:1011900000F09FF800F090F801D1022010BD00F09F
:1011A00092F8FFF7C5F99BE738B500F026F803F58C
:1011B000FE73002500F028F808BF1A6110E001F066
:1011C0000F011C2251430844D0F81402704738B56F
:1011D00000F013F83C33012500F016F808BF1A613F
:1011E000026900680029D2B2194602D1FFF7AEFAAF
:1011F00001E0FFF7FDF9002032BD1C4601F00F05AC
:101200001C235D43431970475C6101F00F0100240A
:101210009C61DA605D7019700469012C704738B503
:1012200005460C46696804F00F00814201D2012096
:1012300032BD1C21220605D54843284400F13C015B
:10124000012005E011FB04F1681800F5FE71002093
:10125000487001228A7004F00F040C7095F8BC03EA
:10126000012801D1022032BD85F8BC232868FFF790
:10127000F2FA34B92969286805F57172C9B2FFF725
:1012800084FB002085F8BC0332BD10B5044601F094
:101290000F026068904201D2012010BD00F019F8E1
:1012A0000023837000F008F801D1022010BD00F087
:1012B0000AF8FFF7E8FA13E701F00F01017094F85C
:1012C000BC1301297047012284F8BC230146206821
:1012D00070471C204243A0180A0603D53C30012366
:1012E0004370704700F5FE7000224270704730B4C2
:1012F000002513E050F8042BD30744BFA9F10103E4
:101300009A18091F042942F8045BFAD213468C0785
:1013100044BF15809B1CC90748BF1D7050F8041BB3
:101320000029E7D130BC704710B586B004461421BF
:1013300001A800F02DFA2268B2F1A04F30D10020B0
:10134000834C00900222216841F0010121604FF49A
:10135000C051206800F00100009000987D48019184
:1013600002920021039103220A210591049201A90E
:1013700000F012FA606840F0800060600021009187
:101380000022606940F480406061606900F4804040
:1013900000900098432000F01BFB432000F035FB39
:1013A00006B010BD00F57171D0F8040400F090BBD8
:1013B0000B461C225343C218D0F80404D2F808226A
:1013C00000F0B4BB0B461C225343C218D0F80404EF
:1013D000926C00F0E2BBD0F8040400F06EBC38B5AB
:1013E00004460125E06808B9002503E0022818BF7B
:1013F00000F060FDD4F80404294600F04AFCD4F85B
:101400000404BDE8324000F014BC10B50446D4F822
:10141000040400F041FC206800F56060016841F0C0
:1014200001010160206A20B14B48016841F00601CA
:10143000016010BDD0F8040400F036BCD0F80404FC
:1014400000F059BCD0F8040400F046BCD0F8040405
:1014500000F060BCD0F8040400F05EBC10B5017868
:1014600039BB3E4CC4F80404C0F8C4424FF0A0405D
:1014700020600421002002222061E061206260627D
:10148000E06220636160E260A2612046FFF714FB26
:1014900008B100F00FFD8021204600F09AF84022AC
:1014A0000021204600F074F880220121204600F03F
:1014B0006FF8002010BD80B5D0F8C402FFF764FBC0
:1014C000BDE802404FE010B51C461346D0F8C402F8
:1014D0002246FFF72EFEBDE8104044E080B5D0F86C
:1014E000C402FFF751FEEBE780B5D0F8C402FFF766
:1014F00096FEE5E780B5D0F8C402FFF7C6FEDFE749
:10150000D0F8C42201F07F031C204343D018090601
:1015100002D590F83E00704790F8FE01704780B504
:10152000D0F8C402FFF7F4FDCAE780B5D0F8C402D2
:10153000FFF74DFEC4E780B5D0F8C402FFF734FED4
:10154000BEE7D0F8C402FFF73ABE05487047000076
:10155000303802400000024010ED00E01439002055
:10156000EC3F002070470146002021B1022901D143
:1015700001207047032070474AB1000011F8013B79
:10158000521E00F8013B1CBF11F8013BF8E7704701
:1015900070B50068436A0C0003D143EA02428262DC
:1015A00015E0846A03EB1443002406E000EB850594
:1015B000641CD5F8046103EB1643E5B24E1EB54238
:1015C000F4D300EB810043EA0242C0F8002100207E
:1015D00070BD006841620020704770472DE9F041FE
:1015E00004000F4654D04B4E306800F00700B8425C
:1015F00002D200F073F84BD12068474D810712D515
:10160000400703D5A96841F4E051A960207801079B
:1016100003D5A86840F46040A860A968A06821F0DC
:10162000F0010143A9602178C80729D56068012825
:1016300002D129688A0305E0022818BF032803D1D4
:1016400029688A0103D423E029688A0720D5A9687C
:10165000890840EA8100A860FFF728FA8046A86858
:10166000616800F00C00B0EB810F09D0FFF71EFAA3
:10167000A0EB080041F289318842F0D303202BE02F
:10168000306800F00700874204D200F027F801D04C
:10169000012021E02078410705D5AA68E06822F4FE
:1016A000E0520243AA602178080706D5A96820699C
:1016B00021F4604141EAC001A96000F039F8AA684C
:1016C0001649174BC2F30312895CC84018601548CD
:1016D000006800F0F1FB0020BDE8F0813770316850
:1016E00001F00701B94270470D48006870470C4887
:1016F0000D4A006813680D49C3F3822206E00848CA
:10170000094A006813680949C3F34232895CC8403A
:1017100070470000003C024000380240F0430008DF
:101720000C0000200800002008380240684400082F
:1017300030B5144C606800F00C00042802D0082872
:1017400002D01DE0104830BD22682068002341020D
:1017500002F03F0204D525680B49C5F3881003E069
:1017600020680A49C0F38810A1FB000100F0C4FB07
:101770002168C1F30141491C4900B0FBF1F030BDC3
:10178000024830BD0438024000127A000024F40000
:10179000002200F035BC00002DE9F84F0D46002670
:1017A0007349744A0F23044601202F68B04000EAB1
:1017B0000708804540F0C9804FEA460C032707FA26
:1017C0000CF76FEA070E6F6807F00309B9F1010F14
:1017D0001CBF07F00307022F12D1A768D5F80C90A1
:1017E0000EEA070709FA0CF949EA0707A7606768D4
:1017F00027EA00006F68C7F30017B74038436060FE
:10180000B0002F7907F00307032F21D0E768D5F840
:1018100008900EEA070709FA0CF949EA0707E7609A
:101820002F7907F00307022F12D1F70804EB87077F
:1018300000F01C09D7F820A003FA09FB2AEA0B0ADA
:10184000D5F810B00BFA09F949EA0A09C7F820904F
:1018500027680EEA070E2F7907F0030707FA0CF73F
:1018600047EA0E0727606F68FF006ED500270097D4
:101870004FEA960C176847F48047176000F00C0099
:10188000176807F48047009703FA00FE009F3A4F5D
:1018900057F82C7027EA0E0E384FBC4208BF0027BD
:1018A00022D0374FBC4208BF01271DD0354FBC4264
:1018B00008BF022718D0344FBC4208BF032713D0FB
:1018C000324FBC4208BF04270ED0314FBC4208BF84
:1018D000052709D02F4FBC4208BF062704D02E4F42
:1018E000BC420CBF0727082707FA00F0224F40EA46
:1018F0000E0047F82C006FEA08000F6800EA070C9A
:101900006F68FF0348BF48EA0C0CC1F800C04F687D
:1019100000EA070C6F68BF0348BF48EA0C0CC1F827
:1019200004C08F6800EA070C6F68FF0248BF48EAEE
:101930000C0CC1F808C0CF6800EA070C6868800288
:1019400048BF48EA0C0CC1F80CC0761C0F2E7FF67D
:101950002BAFBDE8F18F02B909048161704742697C
:1019600001EA0203914341EA0341816170470000AB
:10197000003C014044380240083801400000024069
:101980000004024000080240000C02400010024027
:101990000014024000180240001C0240090102002D
:1019A00002D4294881547047284B02F00F021A4490
:1019B00002F8041C7047264B19684FF6FF0200021C
:1019C000114000F4E0600843224908431860704762
:1019D00070B51F4B1C68C4F302230124C3F1070533
:1019E000052D2EBF0F2504FA05F56D1E1E1D072EB1
:1019F00034BF0023DB1E2940994004FA03F3BDE8FD
:101A000070405B1E1A401143C8E7010007D4012251
:101A100000F01F01104B8A40400943F82020704716
:101A200010B5401EB0F1807F01D3012010BD0B4CDA
:101A300060600F214FF0FF30FFF7B0FF0021A16081
:101A400007202060002010BD00E400E018ED00E059
:101A50000CED00E00000FA0500E100E010E000E01D
:101A600010B508B9032010BD00F527730024DC6110
:101A70005C621C6301B19961012119700270BDE8BB
:101A80001040FFF7EBBC1CB50022ADF8002009B9EF
:101A9000032016BD00F52E742160C96A11B1684695
:101AA00088476061002016BDFFF705BD80B5D0F8FE
:101AB000B832032213B11A6890470246104602BD9D
:101AC00080B5D0F8B8220AB152689047002002BD14
:101AD00038B5044604F2AA25284600F0ACFC04F50B
:101AE000257001210160828B817D426011F01F0011
:101AF00003D002280DD006D311E029462046BDE8C8
:101B0000344000F09DBA29462046BDE8344000F03C
:101B1000D8BB29462046BDE8344000F0F8BB20463B
:101B2000BDE8344001F08001FFF7DEBC38B5044663
:101B300010460B0004F5257223D11168032912D138
:101B400004F5AE714B680D68AB420ED2ED1A04F588
:101B5000AE730D602A4659688A4288BF0A4601461C
:101B6000204600F0C5FC002032BD107A032804D1C5
:101B7000506A016909B120468847204600F0C0FC40
:101B8000F1E7107A0328EED1506A8269002AEAD080
:101B9000204690470100E6D032BD38B504461046D5
:101BA0000A0004F5257538D1296802292ED1E26989
:101BB000216A914206D2521AE2610146204600F0A3
:101BC00085FC0DE013D1A069884210D36968884272
:101BD0000DD200220021204600F078FC0020686031
:101BE0000023002200212046FFF7A5FC0EE0287A02
:101BF000032804D1686AC16809B12046884780215A
:101C00002046FFF771FC204600F081FC287B01286C
:101C100004BF00212973002032BD287A0328FAD19D
:101C2000686A4269002AF6D0204690470100F2D047
:101C300032BD10B5044604F5257001210172002261
:101C40000260002363600261416A09B9032010BD8C
:101C5000806A00281CBF4A68002A02D00021204662
:101C600090474023002200212046FFF72CFC04F57A
:101C7000B070012140228180026040230022802137
:101C80002046FFF720FC0120A08440212162002093
:101C900010BD01740020704700F527700422017800
:101CA000417002700020704700F527700178042908
:101CB00004BF417801700020704780B500F527729D
:101CC000D16909B9032002BD1278032A02D1C9697A
:101CD00001B18847002002BD80B500F52773DA699D
:101CE0000AB9032002BD1B78032B02D1126A02B18C
:101CF0009047002002BD80B500F52773DA690AB964
:101D0000032002BD1B78032B02D1526A02B1904717
:101D1000002002BD0020704780B500F52771012228
:101D20000A70CA691AB141685268C9B29047002066
:101D300002BD000010B500F0F1FB00F053F800F018
:101D400007FC00F069FC00F0BFFC00F0C7FC00F0ED
:101D5000D3FC00F0DBFC00F0F1FC00F0F9FC00F03B
:101D6000ABFE484C012240212046FFF7F4FD012242
:101D700080212046FFF7EFFD4348444C00F0D3FE9E
:101D8000012204F21461424801F02AF9012204F60A
:101D90002C41404801F024F941F24420211801224D
:101DA0003D4801F01DF941F65C00211801223B4835
:101DB00001F016F941F6746021180122384801F04B
:101DC0000FF942F28C4021180122364801F008F93F
:101DD000012210213448FFF7BEFD00F0FDFD00F0A8
:101DE000BCFDFAE780B592B0302106A8FFF7D0FC21
:101DF000142101A8FFF7CCFC002000904FF48033A1
:101E00002A48016841F0805101600021006800F01B
:101E100080500090009826480091026842F4804269
:101E200002600122006800F48040009006A800993A
:101E3000069202214FF480020C910D920421A822F7
:101E40000E910F920221072207931091119201F037
:101E50005DF908B172B6FEE70221029100220392F9
:101E60000F204FF4A051019004914FF4805205923D
:101E7000052101A8FFF7B2FB08B172B6FEE713B067
:101E800000BD0000000002402C450020840200201C
:101E9000FC45002040460020844600207445002078
:101EA000B8450020C84600200008024040380240E3
:101EB0000070004072B6FEE738B50D4D0D4B2A7824
:101EC00004464FF47A711868B1FBF2F2B0FBF2F0FD
:101ED000FFF7A6FD50B9102C08D2002221464FF082
:101EE000FF30FFF775FDAC60002032BD012032BD30
:101EF000000000200C000020D3BBD9B1B2F5803F18
:101F00005BD2022A1ED98C46B1FBF2F102FB11C34F
:101F10001B0443EA1043B3FBF2FC02FB1C3380B208
:101F200040EA0343B3FBF2F002FB103240EA0C40FC
:101F300000237047022A05D98446B0FBF2F002FB69
:101F400010C270474AB105D100F0010249085FEAAA
:101F50003000704700220023704701F065BA0B0083
:101F60000200002100207047F7D3002200237047B1
:101F7000904271EB030CF2D370B5B1FA81F4B3FA6D
:101F800083F52C1BA340C4F1200532FA05F6334338
:101F9000A2405FF00046E64002E05B085FEA3202E2
:101FA000841A71EB030524BF204629467641F4D3F9
:101FB00002000B003000002170BD70B5B1FA81F451
:101FC000B2FA82F5C4F120046419B4F12006DAD320
:101FD000B2405FF00044F440002502E052085FEA9E
:101FE0003303C61A71EB020E24BF304671466441BA
:101FF0006D41F3D302000B002000290070BD0000EA
:1020000000B500BF130096469446103928BFA0E8DB
:102010000C50FAD85FEA417C28BF0CC048BF40F89A
:10202000042BC90728BF20F8022B48BF00F8012B5A
:1020300000BD00004178007840EA012070470000B0
:102040002DE9FC410E460546307810F060004FF057
:10205000000805F527770AD0202818BF402840F04F
:10206000DC80FA6993682846984780461DE17178BC
:102070000929F4D8DFE811F0F4000D01D1000701BF
:10208000D10084000A00D100E2009E00ADF800807B
:102090007088010A01296DD002295FD0032925D05B
:1020A00006291BD0072904BF287C00286DD1F969B7
:1020B0000A6B6846904707214170F288002A00F0B9
:1020C000F180BDF8001000292BD0914288BF114645
:1020D000ADF800100146BDF80020D0E0287C0028B3
:1020E00053D1F9694A6B68469047E6E7C0B20528C4
:1020F0004BD8DFE800F02B231B130B03B869826970
:10210000002A0ED0287C69469047D6E7B869426914
:10211000002A06D0287C69469047CEE7B869026954
:10212000002A7AD0287C69469047C6E7B869C26819
:10213000002A72D0287C69469047BEE7B869826859
:10214000002A6AD0287C69469047B6E7B869426899
:10215000002A62D0287C69469047AEE7287CF9695E
:102160000028684603D18A6A90470221A4E7CA6A18
:102170009047FAE7BA69287C1368694698479CE754
:10218000B088002804BFF088002846D17488802CCD
:1021900043D23878032804F07F043ED0BC70214637
:1021A0002846FFF7BCF9284600F0AAF954BB0121E4
:1021B00039707AE03E4C70882070217808460228F9
:1021C00002D300F07BF836E03A78022A1CD0032ACA
:1021D0002CD129B902203870696000F06CF861E0F8
:1021E000696888425ED000F065F821786960284609
:1021F000FFF75CFC5FEA000854D000F05FF8696804
:1022000000F058F802200FE000294BD06860284603
:10221000FFF74CFC5FEA000802D000F04FF844E002
:10222000284600F06DF9032038703EE000F046F8D3
:10223000217800F040F84FF0030836E0F0880128DC
:10224000EBD13978491E012904D9891EE5D1012233
:10225000291D14E0C5F80880012205F108010EE0EF
:102260003878401E0228D8D8F288022AD5D1012118
:10227000E960B86808B10321E96005F10C0128465E
:1022800000F01CF911E0708801280ED10121B9601D
:1022900008E03878401E0228BFD87288012A04D18D
:1022A000C7F80880284600F02BF94046BDE8F681C3
:1022B00018470020C9B22846FFF702BC314628461D
:1022C000CEE070B50E4604463078002510F0600070
:1022D0001CBF2028402815D104F527721078401E15
:1022E00002280FD83379022B0CD2D269936820468A
:1022F00098470546F08840B9280006D1204600F0EE
:10230000FFF802E0204600F0ABF8284670BD2DE94A
:10231000F0410E46804631783079002411F060019A
:1023200008F5277704D0202939D0402964D136E038
:10233000717800293AD0012914D003295CD13A7868
:10234000022A15D0032A57D1718839B9002818BF3D
:10235000802803D0F18809B900F069F8404600F000
:10236000CFF84DE03978022902D003290AD043E0A2
:10237000002818BF80283FD000F059F8802100F0D5
:1023800057F83DE0718800293AD110F07F0203D060
:1023900001464046FFF7AEF8404600F0B1F8FA6952
:1023A0009368314640469847044629E0142200F0DD
:1023B0007F013F78514308EB0103022F03F5AA7513
:1023C00000F0800102D0032F0ED015E0002818BFC6
:1023D000802811D109B103F114052C60022229468D
:1023E000404600F06BF80BE000F00F0712FB07F21D
:1023F000424441B1918C79B93146404600F030F801
:102400002046BDE8F081B2F864110029F4D000281C
:1024100018BF802803D1E0E703F11405F7E7014670
:102420004046FFF76DF800B101202860D6E701466D
:102430004046FFF759B838B50D4604462878207055
:10244000A81C697861702D1DFFF7F4FD6080284697
:10245000FFF7F0FDA080A81CFFF7ECFDE08031BD88
:1024600010B504468021FFF73FF82046BDE8104034
:102470000021FFF739B800280B4600D1704770B52E
:102480000021044600E0491C14F8015B002DFAD13C
:102490000906C90D891C11801178197003225A7020
:1024A000022207E010F8011BD4B2521C1955D6B213
:1024B000521C9D5501780029F4D170BD80B513469A
:1024C0000222C0F894228361C36101E080B5134603
:1024D0000A460021FFF729F8002002BD80B5134607
:1024E0000322C0F8942200F5AC721360536001E03F
:1024F00080B513460A460021FFF71DF8002002BDF3
:1025000080B50421C0F8941200230022E1E780B5D1
:102510000521C0F8941200230022ECE780B50B4897
:10252000016841F400710160026842F48062026057
:10253000016841F4807101600320FFF73CFA0F202D
:10254000FFF7BAFC00F072FF002002BD003C024021
:1025500038B586B01422002101A800F083FF0021C5
:102560002348244D244C0091026842F0040202608A
:102570000022016801F0040100F040F843F08003FC
:102580000360016801F0800100F038F843F00103B6
:102590000360016801F0010100F030F843F002032C
:1025A0000360016801F00201009100990092C021CE
:1025B000036843F008030360006800F0080000901F
:1025C00000982846FFF7C7F9012210212046FFF79F
:1025D000C2F9C02100F017F82846FFF7DDF81021F6
:1025E00000F011F82046FFF7D7F807B030BD000023
:1025F000303802400000024000080240009100997B
:102600000092036870470191012200210391049117
:10261000029201A97047000010B586B01022002177
:1026200002A800F01FFF08220021684600F01AFFF0
:10263000224C2348206042F2CF0142F20F70E0604A
:1026400000228020A0616160A2602261204600F02B
:102650005DFA08B1FFF72EFC4FF48050029002A9FA
:10266000204600F06BFB08B1FFF724FC202100910D
:10267000002201926946204600F0FEFE08B1FFF7F5
:1026800019FC06B010BD00680D49884200D07047A3
:1026900080B500220B480092016841F004010160FE
:1026A0000021006800F00400009000981E20FFF751
:1026B0008FF9BDE802401E20FFF7A7B92C45002086
:1026C000000800404038024080B5DFF8A403DFF87E
:1026D000A41300F025F800B10AE001BD80B5DFF8D1
:1026E0009803DFF8981300F01BF800B100E001BD7B
:1026F000BDE80140FFF7DEBB80B5DFF88403DFF8FB
:10270000841300F00DF800B1F2E701BD80B5DFF8E9
:102710007803DFF8781300F003F800B1E8E701BDB3
:1027200001604FF4E13200230C2142608360C360FA
:10273000036141618361C36100F0F6BB80B5DFF8DE
:102740005003DFF85013FFF7EBFF00B1D0E701BDF6
:1027500080B5DFF84403DFF84413FFF7E1FF00B171
:10276000C6E701BD10B586B00446142200216846B4
:1027700000F078FE2368DFF8FC22DFF82403DFF89E
:10278000241393421FD1002305930A6942F40022C7
:102790000A610A6902F400220592059A0593032250
:1027A0000C6844F001040C600223096801F0010187
:1027B00005910599009201930022029203230822B9
:1027C0000393049281E000F0C4F82DD1002005901D
:1027D0000B6943F480130B610023086900F4801037
:1027E00005900598059300F08CF805980593022351
:1027F0000C6844F008040C60086800F008000590BC
:102800004FF4805100F086F8FEF7C6FF02210191D7
:1028100000220420029203210090039108220492D6
:102820006946DFF8840268E0DFF85842A34211D11C
:10283000002205924B6943F010034B6100234A6963
:1028400002F010020592059A05934FF4C06200F061
:102850006DF83AE0DFF83442A34210D1002205922D
:102860000B6943F400330B6100230A6902F4003260
:102870000592059A05930C2200F058F825E0DFF840
:102880001402834223D100220592086940F480207B
:102890000861086900F480200590059805920222DD
:1028A0000B6843F002030B60086800F0020005901B
:1028B0004FF440610598DFF8F40100910192002186
:1028C00002910322072104910392694615E0DFF883
:1028D000CC01834213D100230593486940F02000C6
:1028E0004861486900F0200005900598059302238F
:1028F00000F007F8C02100F00DF8FEF74DFF06B01C
:1029000010BD0C6844F004040C60086800F004007A
:1029100005907047059800910193002102910323CF
:102920000821049103936946104670470C6844F0EF
:1029300001040C600223096801F001010591059969
:102940000092019300220292032307220393049230
:1029500070474A4C564AA3427047F8B5554C04F5A7
:102960000275284600F0ECFD002804BFD4F81004DE
:10297000002811D1284600F0C5FD024604F2144695
:102980003146284600F012FE82B231463E4800F041
:1029900006FB0120C4F8100442F29861651828462D
:1029A00000F0CEFD002802BF42F6A006A059002884
:1029B00011D1284600F0A6FD42F6A4016718024690
:1029C0003946284600F0F2FD82B23946304800F020
:1029D000E6FA0120A051F1BD7CB5364C204600F04E
:1029E000AFFDA8B9204600F08DFD054600260DE09C
:1029F0006946204600F0C9FD9DF90010062000F050
:102A000021F89DF8000000F0EFFD761CAE42EFD3F8
:102A100042F290402518284600F092FD88B92846D9
:102A200000F070FD0446002609E06946284600F0E3
:102A3000ACFD9DF90010002000F004F8761CA642C1
:102A4000F3D373BD38B50C464FF4C362194910FB7C
:102A500002F20A4402F50275284600F079FD28B911
:102A6000E1B22846BDE8344000F07FBD31BD000032
:102A700074450020004C0040B84500200050004044
:102A8000FC4500200010014040460020004400406A
:102A90008446002000480040C84600200014014041
:102AA0000000024030380240000C024000040240A6
:102AB000000802408402002010B5104C104900228A
:102AC0002046FEF7CDFF08B1FFF7F4F90D49204687
:102AD000FEF7D9FF08B1FFF7EDF90B49204600F0EA
:102AE000C9FE08B1FFF7E6F92046FEF7DDFF18B191
:102AF000BDE81040FFF7DEB910BD00BF1C3D00204F
:102B0000340100201C0000202001002038B5040002
:102B100001D1012032BD00F069F818B900F062F867
:102B2000FFF7B1FD3DE090F83D10012901D00120F3
:102B30007047022180F83D100168CA6842F0010226
:102B4000CA600068DFF88010884218BFB0F1804F7B
:102B500017D0DFF8781088421CBFDFF8742090424D
:102B60000FD0DFF8701088421CBFDFF86C20904255
:102B700007D0DFF8681088421CBFDFF8642090425D
:102B800009D1816801F00701062908D0016841F0E8
:102B90000101016003E0026842F0010202600020CE
:102BA000704702206870211D206800F024F9012080
:102BB000A872A870E87028716871A871E87128720D
:102BC00068726870002032BD0000014000040040BF
:102BD00000080040000C004000040140004001409B
:102BE00000180040002129702046704704F13C0580
:102BF0006878704710B50446206801698A0715D5C2
:102C0000C1688A0712D56FF00201016101222277A3
:102C1000806910F0030F204602D000F059FE03E057
:102C200000F057FE00F087F8002020772068016947
:102C30004A0715D5C1684A0712D56FF00401016132
:102C400002222277806910F4407F204602D000F0F3
:102C50003FFE03E000F03DFE00F06DF8002020771D
:102C6000206801690A0715D5C1680A0712D56FF0F7
:102C70000801016104222277C06910F0030F204689
:102C800002D000F025FE03E000F023FE00F053F830
:102C90000020207720680169CA0615D5C168CA06D8
:102CA00012D56FF01001016108222277C06910F47B
:102CB000407F204602D000F00BFE03E000F009FE4A
:102CC00000F039F80020207720680169CA0708D58C
:102CD000C168CA0705D56FF001010161204600F007
:102CE000F9FD206801690A0608D5C1680A0605D5FC
:102CF0006FF080010161204600F0EDFD2068016960
:102D00004A0608D5C1684A0605D56FF04001016141
:102D1000204600F0E1FD206801698A060AD5C168F5
:102D20008A0607D56FF0200101612046BDE81040FA
:102D300000F0D3BD10BD204600F0D0BD38B500F086
:102D40004EF801D1022032BD0120207002226270B3
:102D5000DFF838012A68936803409360086802002E
:102D600018BF10282DD0202818BF302829D040287F
:102D700023D0502816D0602818D0702803D0B0F582
:102D8000005F07D021E000F025F82868816841F055
:102D9000770105E000F01EF82868816841F4804161
:102DA000816012E000F012F850210BE0CA68496817
:102DB000286800F092F8602104E000F007F8402154
:102DC00000E00146286800F09AF80EE0CA684968F9
:102DD000286873E0CB684A688968286897E00546E8
:102DE00005F13C0420780128704701206070002123
:102DF0002170002032BDF0B5254C0568254B264ECC
:102E0000264FDFF89CC0A04218BFB0F1804F07D01A
:102E1000604518BFB84203D0B04218BF98420DD1E8
:102E20004A6825F070051543A04218BFB0F1804FE5
:102E300017D060451CBFB842B04212D098421CBFA8
:102E4000184A90420DD0184EB0421CBF174A90420B
:102E500007D0174EB0421FBF164A9042164EB042DE
:102E600003D1CA6825F4407515434A6925F08005E9
:102E700015430560A0428D68C5620A68826212BF70
:102E800098420969016301224261F0BD8800FFFF99
:102E90000000014000040140000C00400008004018
:102EA000000400400040014000440140004801404F
:102EB00000180040001C00400020004010B5036ACC
:102EC000046A64086400046223F00A03846924F03D
:102ED000F00444EA0214846123E010B5036A23F08D
:102EE000100303628369046A23F4704343EA0233E4
:102EF00024F0A004836144EA0114046210BD8268D6
:102F000022F07002114341F007018160704710B553
:102F1000846824F47F442143114341EA0321816002
:102F200010BD1943016210BD38B5040001D1012064
:102F300032BD00F026F808B900F014F800F017F8D8
:102F400000F023F8FFE7416100F001F832BD20688E
:102F5000C16841F40051C16000206860202169709F
:102F6000A9707047002129702046FFF7FBBB242081
:102F700068702068C16821F40051C160204600F0EB
:102F800062B804F13C05687870472068016921F453
:102F9000904101612068416921F02A01704710B514
:102FA00000F13C035C78202C18D109B1140001D148
:102FB000012010BD1C78012C10D001241C7001626E
:102FC0008284C2840021596021225A7019700068DD
:102FD000C26842F08002C260002010BD022010BD15
:102FE00038B500F130039C7B202C0FD109B11400BF
:102FF00001D1012032BD1C7B012C07D001241C73A0
:1030000000251D60BDE8384000F002B8022032BD46
:1030100081628285C28500F13C0100224A60222340
:103020008B700A700168CB6843F48073CB600168D1
:103030004A6942F001024A610068C16841F020011A
:10304000C1600020704770B5044622681169E068CD
:1030500021F4405101431161D3682648A16803401F
:1030600020690B4361690343E0690B430343D36069
:103070005169A06921F44071014351611E498A429E
:103080001CBF1E48824202D1FEF739FB01E0FEF769
:103090002EFB62682568E46964261921B4F5004FA7
:1030A000A1FB000112D1D30F5200FEF725FF00F063
:1030B00027F8F60032366420B6FBF0F0420002F446
:1030C000F87202EB011200F0070010E0930F92007B
:1030D000FEF712FF00F014F8360132366420B6FB1A
:1030E000F0F000F0F00202EB011200F00F00801887
:1030F000A86070BDF369FFFF00100140001401409B
:103100006421B0FBF1F106FB110670472DE9F8438D
:10311000040016D02078DFF80063C10713D5B0682B
:1031200000F00C00042807D0B06800F00C0008285C
:103130003DD1706841023AD53068810303D560689B
:10314000002800F063812078B44F810719D5B0685A
:1031500010F00C0F07D0B06800F00C0008285BD10D
:103160007068410258D43068810703D5E0680128AF
:1031700040F04C813168206921F0F80141EAC0013A
:1031800031602178080779D56069A549002868D0A1
:1031900001220A60FDF78AFC0546706F81076DD435
:1031A000FDF784FC401B0228F7D9032031E1606859
:1031B000B0F5803F04D1306840F48030306011E0D9
:1031C000B0F5A02F306806D140F48020306031681F
:1031D00041F4803105E020F480303060316821F422
:1031E00080213160606858B1FDF760FC05463068A9
:1031F0008103A8D4FDF75AFC401B6528F7D3D4E718
:10320000FDF754FC0546306881039CD5FDF74EFC64
:10321000401B6528F7D3C8E7E068A8B101213960F1
:10322000FDF744FC05463068810705D4FDF73EFCF8
:10323000401B0228F7D9B8E73068216920F0F80070
:1032400040EAC10030609CE73860FDF72FFC05467E
:103250003168880795D5FDF729FC401B0228F7D96E
:10326000A3E70860FDF722FC0546706F810705D5CE
:10327000FDF71CFC401B0228F7D996E72078410790
:103280005FD5306C0025C1000AD400950125316C52
:1032900041F080513164306C00F080500090009813
:1032A000DFF88081D8F80000C10513D4D8F80000F9
:1032B00040F48070C8F80000FDF7F8FB8146D8F8AC
:1032C0000000C10506D4FDF7F1FBA0EB09000228C0
:1032D000F5D96AE7A068012805D00528306F06D126
:1032E00040F004003067306F40F0010005E0400816
:1032F00040003067306F20F00400306741F28938B9
:10330000A06860B1FDF7D2FB8146306F810713D40E
:10331000FDF7CCFBA0EB09004045F6D345E7FDF7F0
:10332000C5FB8146306F810706D5FDF7BFFBA0EBDB
:1033300009004045F6D338E71DB1306C20F08050CD
:103340003064A069002863D0B16801F00C0108293D
:103350003AD002282AD100203866FDF7A7FB05469F
:103360003068810105D5FDF7A1FB401B0228F7D984
:103370001BE7E069216A626A0843A16A490840EADA
:103380008210491E40EA0140E16A40EA0160706033
:1033900001203866FDF78AFB04463068810137D486
:1033A000FDF784FB001B0228F7D9FEE600203866F3
:1033B000FDF77CFB04463068810129D5FDF776FBDB
:1033C000001B0228F7D9F0E601281FD07068E269D7
:1033D00000F48001914202BF00F03F01226A914255
:1033E00001BF47F6C0710140626AB1EB821F0DD187
:1033F000A26A520800F44031521EB1EB024F02BFE4
:1034000000F07060E16AB0EB016F01D0012000E0D4
:103410000020BDE8F28300BF0038024000004742B0
:10342000800E4742007000407047000081B00020CD
:10343000009000220A48416841F48041416041689F
:1034400001F48041009100990092036843F0805399
:103450000360006800F080500090009801B0704751
:103460004038024010B5044610460A460146204640
:1034700000F036FA204610BD70B500F13C031A7812
:10348000012A01D1022070BD01221A7002245C7051
:1034900005686E68AC680A6826F0700616436E60B0
:1034A00002681148824218BFB2F1804F11D0114812
:1034B00082421CBF104DAA420BD00D4882421CBF55
:1034C0000E4DAA4205D0094882421CBF0C4DAA42AB
:1034D00004D1486824F080040443946001215970A9
:1034E0000020187070BD0000000001400040014045
:1034F000000C0040000400400008004000040140AF
:1035000000180040014600204A680968914204D032
:10351000881A8A4228BF00F5007070470168491C6C
:10352000B1F5007F28BF002101600846704741685F
:10353000491CB1F5007F28BF002141600846704753
:1035400001684068814201D1012070470020704726
:1035500001684068491CB1F5007F28BF00218842FE
:1035600001D1012070470020704770B504460D4618
:10357000FFF7EEFF002630B92068204401260572CF
:103580002046FFF7CBFF304670BD70B504460D46B0
:10359000FFF7D6FF002638B9606820440126017A7B
:1035A00029702046FFF7C3FF304670BD70B500F0AC
:1035B00017F8864288BF064600200DE061684A1C65
:1035C000214462600B7A05F8013B6168B1F5007F28
:1035D00024BF00226260401CB042EFD3304670BD71
:1035E00004460D4616468DE7014900F0ACB900BF10
:1035F000CC010020F8B505464FF40770FDF7A5FF94
:10360000040005F52F7602D130600220F2BD34604F
:1036100005F14C07287C40B94FF4007300F032F8F4
:10362000012028874FF4007305E0402300F02AF8BA
:10363000012028874023022201212846FDF743FF6D
:103640000120A5F878011021798008230322822126
:103650002846FDF738FF0120388071680A689047D6
:1036600004F50171002008614861287C0A6800287F
:103670000CBF4FF40073402301212846FDF75BFF88
:103680000020F2BD022281212846FDF71CBF38B57B
:1036900004468121FDF722FF04F13805002028802F
:1036A00001212046FDF71AFF0020A4F878018221AD
:1036B0002046FDF713FF0020A882E88204F52F744E
:1036C000206838B16068416888472068FDF74AFF84
:1036D00000202060002032BDF8B5054605F52773AF
:1036E0000E461C6A00218DF80010ADF8021000276C
:1036F0000CB90320F2BD317811F0600024D02028ED
:103700003ED1F2887078D2B109060DD55B6AD3F844
:1037100008C02146E047F288082A28BF0722214630
:103720002846FEF7CBFE30E004F500710870F08803
:1037300048702146F2882846FEF7D0FE25E05B6AF5
:103740009C683146A04720E0707830B101281CD039
:103750000A2809D00B2810D012E0197803290FD1BC
:1037600002220DF1020104E01878032808D1012299
:1037700069462846FEF7A2FE07E01878032804D021
:1037800031462846FEF76CFE03273846F2BDF8B5F1
:10379000044604F52F739E681D680DB90320F2BD21
:1037A0000F46142010FB07F004EB000CDCF81800A7
:1037B00080B11C225743F219526CB0FBF2F602FBA7
:1037C000160038B9CCF81800002300222046FDF777
:1037D000ACFE0BE005F502700022C2605B681B695D
:1037E00023B10A46006805F5047198470020F2BD30
:1037F00070B500F52F752C680CB9032070BD04F569
:103800000176FDF79EFEB06004F503716A683068CA
:10381000D3689847002070BD10B500F52F7001687F
:1038200009B9032010BD4368002B1EBF01F50074C9
:103830002078FF2804D062789B689847FF2020708A
:10384000002010BD432101800648704743210180BC
:103850000548704743210180044870470A210180D0
:10386000034870479800002054000020DC0000202E
:103870001000002009B903207047C0F8C0120020D2
:103880007047D0F8BC0208B90320704700F50270F9
:103890000160826000207047D0F8BC0208B90320A4
:1038A0007047C0F804120020704780B5D0F8BC12F1
:1038B00009B9032002BDD1F80422017C00290CBF04
:1038C0004FF4007340230121FDF735FE002002BDB7
:1038D00070477047704770477047704770470000E7
:1038E00062F30F2262F31F42401810F0030308D066
:1038F000C91A1FD3DB0748BF00F8012D28BF20F8E5
:10390000022D130030B414461546103928BF20E9A3
:103910003C00FAD8490728BF20E90C0048BF40F80E
:10392000042D890028BF20F8022D48BF00F8012D82
:1039300030BC7047C91818BF00F8012DCB0728BF4D
:1039400000F8012D704738B50C46C5B22046AFF3DC
:103950000080E068A169884204D3204600F01DF889
:1039600000280FD4E068401CE06000F8015D20886A
:10397000010503D440050BD50A2D09D1204600F0DE
:10398000A1F828B12046AFF300804FF0FF3032BDE0
:103990002046AFF30080284632BD10B50446E068EB
:1039A000A169884251D3218849F202030B40022BBE
:1039B00008D008044CBF4FF400704FF4844001431A
:1039C00021803BE001F4C042B2F5C04F06D1A168AE
:1039D000884203D3204600F075F878BB208810F4A5
:1039E000406F02BF606804F14401884217D14FF470
:1039F000007000F083F8606030B904F1440060604A
:103A0000E060401CA0600AE0218841F04001218074
:103A1000E060606100F500726068A260E06160686B
:103A2000A1682061A161207841070AD50222002106
:103A3000204600F0FFF810F1010F02D14FF0FF30E7
:103A400010BD208840F4C0402080002010BD000040
:103A500070B50546AFF30080288881042DD56E68C7
:103A6000002400E00644EA6895F9030031469142DB
:103A700008D2521A00F0F0F810F1010F09D0002816
:103A8000F0D106E00022002100F0E6F810F1010F6D
:103A900000D101246868E860A861E861298844B120
:103AA00041F4007129802846AFF300804FF0FF30C9
:103AB00070BD4DF6FF70014029802846AFF30080AD
:103AC000002070BDF8B5A0B9AFF3008000250A4E04
:103AD00008244FF0FF37306820B1FFF7B9FF002806
:103AE00048BF3D46361D641EF5D1AFF30080284621
:103AF000F2BDBDE8F240ABE75C02002010B5044621
:103B0000AFF30080204600F005F80446AFF30080D4
:103B1000204610BD70B500F10F04E408E400A04297
:103B20002CD2082C04D2082402E0083000F046F819
:103B3000DFF8FC201368190005D1002007E00568B4
:103B4000A5420DD2011D08680028F8D11868111D82
:103B500000E0191D0B6883420CD01D68A542F8D304
:103B600061B10B681868A0F10805A54208D2586831
:103B700008600DE000F078F80028D6D1002070BD74
:103B80001D190D60001B5E686E600D6828601C606A
:103B9000096800291DBF48680028081D0020106022
:103BA00003F1080070BD10B5040006D0AFF300802B
:103BB000204600F003F8AFF3008010BD002800D1CC
:103BC000704770B4A0F108021368072B2ED913F0C8
:103BD000070F2BD1DFF85840616809B18A4203D240
:103BE0005160626015E00146486808B19042FAD31E
:103BF00008680E18B24219D3964203D11B180B6005
:103C00000A4606E0486810B1134498420ED350604B
:103C10004A60506850B11368D518854206D1002615
:103C200026600168CB1813604068506070BC704714
:103C30000C47002070B504460D461646AFF30080D1
:103C400033462A460021204600F024F80546204647
:103C5000AFF30080284670BD80B5002802D400F084
:103C600085F802BD002002BD0749086808B10020A0
:103C700070470648C008C00008600549C908C90067
:103C8000091A0160704700BF14470020274B00202D
:103C9000204D00202DE9F04107468846387810F085
:103CA000030F16461D4633D03846FFF70BFF78BB8F
:103CB000B8F1000F1CBFD8E900018619012D2ED1E3
:103CC0003888C10415D5396A07F14402384600F036
:103CD0005CF83A6B044602B93A69F968384600F074
:103CE00054F8361B341A7A69F968384600F04DF8F2
:103CF000261A1EB94DB916F1010F09D097F9030024
:103D00002A46314600F047F8064616F1010F09D160
:103D10002320AFF300804FF0FF30BDE8F081022D8B
:103D2000E8D1EBE7388810F4405F0ED07868F8608F
:103D300038617861B86107F144017868F8613962E7
:103D400007F13000002178623963B8F1000F05D027
:103D5000D8E9020107F13402C2E900013B884CF6C0
:103D6000FF6003403B800020BDE8F08180B5002962
:103D700001D1002002BD012801D0022802D100F0AB
:103D80002FF802BD00F03CF802BD914234BF511A39
:103D90000021084670473EB504000D00012A02D1FB
:103DA00000F084F807E0022A07D100940020019077
:103DB00069460C20ABBE2D1801E0002A0CD10094FE
:103DC000019569460A20ABBE002805D100222100DA
:103DD000280000F048F801E00020C04303B030BDE7
:103DE00030B583B00C001500012000F097F800906A
:103DF0000194029569460520ABBE281A03B030BD78
:103E000018B583B003001400009301910294694631
:103E10000520ABBE01221900201A00F024F804B0DE
:103E200010BD000010B4314A002113461C688442C2
:103E30001EBF491C9C6884421EBF491C1C698442E9
:103E400009D09C69491C844205D0491C20331029A3
:103E5000ECD310BC7047002342F8313002EBC101B3
:103E60004B6010BC704770B4204C002325462E6870
:103E70008E421EBF5B1CAE688E421EBF5B1C2E694D
:103E80008E4209D0AE695B1C8E4205D05B1C20358A
:103E9000102BECD370BC7047054604EBC303012A1A
:103EA00004BF59684D195D6070BC704710B40F4A6B
:103EB000002113461C6884421EBF491C9C68844232
:103EC0001EBF491C1C6984420AD09C69491C84425B
:103ED00006D0491C20331029ECD310BC00207047B9
:103EE00002EBC100406810BC704700000C44002089
:103EF00010B500F052F802000023DB4300241068E4
:103F0000984203D011000220ABBE14605068984262
:103F100003D0111D0220ABBE546010BDF0B583B0BC
:103F2000040000F03AF8A10047183D680026F64367
:103F3000B54216D100F01AF83D68B5420FD100BF66
:103F400009A00090002C01D1002000E00420019085
:103F50000320029069460120ABBE05003D6000F0E1
:103F600014F8280003B0F0BD3A7474000C48012125
:103F7000BFF35F8FD0E84F3FC0E8421F002AF9D15E
:103F8000BFF35F8F002BF3D170470548BFF35F8FFE
:103F900000210170BFF35F8F704702487047000037
:103FA000194700207C020020122008801A48704720
:103FB00004200880194870472DE9104000F028F8C7
:103FC00027A004E02DE9104000F022F82AA02146A5
:103FD000FEF751FA204610BD38B51A200880104966
:103FE0004C68086889680F4D081809D00822A91C78
:103FF00000F022F8042205F11201204600F01CF81E
:10400000284632BD2DE9104000F002F81FA0DEE77F
:104010000A46054C70470000500100206401002052
:10402000107AFF1F680100200C4200202DE910408B
:10403000FFF7EEFF18A0CAE730B500230CE0040F2D
:104040000A2C2CBF3734303401F8134001EB430500
:10405000002400016C705B1C9342F0DB30BD00005B
:1040600053544D3332205669727475616C20436F1E
:104070006D506F727400000053544D6963726F6528
:104080006C656374726F6E69637300004344432010
:10409000436F6E666967000043444320496E746550
:1040A000726661636500000082B001780A062FD550
:1040B00023490B6800930022834203D1002341F877
:1040C000223022E04B680093012283421FBF02226C
:1040D0008B6800938342F1D0CB6800930322834224
:1040E0001FBF04220B6900938342E7D04B69009302
:1040F000052283421FBF06228B6900938342DDD0D5
:104100000722CB6900938342D8D002B000F01AB8DE
:10411000002101804FF0FF3200F14401C270C16004
:104120004161C16100F1440300F1440200F130013A
:104130004360026182610262416202B07047000026
:104140005C020020FFF72FBD38B504000ED02078A8
:1041500010F0030F03D094F90300002809D5AFF342
:1041600000802046FFF7A0FFAFF300804FF0FF3044
:1041700032BD2046FFF7A6FC0546AFF3008020784D
:10418000410644BF6068FFF7DDFF0020606094F9DE
:104190000300022804D900F016F808B14FF0FF35EB
:1041A000E06B48B100F01BF808B14FF0FF35E06B51
:1041B000FFF7C8FF0020E0632046FFF775FFAFF36D
:1041C0000080284632BD1CB50200009269460220DC
:1041D000ABBE04001000FFF725FE200016BDE0B5C1
:1041E000009000F007F8019069460E20ABBE03B0C6
:1041F00000BD000000F10103810704D010F8011B8D
:10420000820781B1FAD10268A2F10131914311F024
:10421000803104BF50F8042FF6E709BAB1FA81F1F2
:1042200000EBD100401CC01A7047F0B40246106881
:1042300095681318506803EB5004C0071CD54D4413
:104240001AE013F8017B05F8017B491EF9D198B1FA
:1042500013F8011BC6F38106032E08BF13F8016B88
:1042600001EB06214942801C294405D011F8016B5D
:1042700005F8016B401EF9D1A3420ED013F8016B73
:1042800016F0030104BF13F8011BC91C30090F28E5
:10429000DBD113F8010B0F30D7E7F0BC02F10C00B3
:1042A0007047000038B50E4C0E4D002205F5006138
:1042B0002046FFF7E6FA29462046FFF7EDFA0020F0
:1042C00032BD002070470020704710B50146044CF5
:1042D0002046FFF7E1FA2046FFF7E7FA002010BD7D
:1042E0001C3D00201429002000207047FEE7FEE757
:1042F000FEE7FEE7FEE770477047704700F014B82E
:1043000080B50648FEF776FCBDE80440402104482D
:10431000FDF725BB0348FCF743BC00002C450020FB
:1043200000000240143900200248416802788A18CF
:10433000426070470000002038B50D4D0824286801
:1043400000281CBF017811F0030F05D090F903106D
:10435000002958BFFFF7F8FE2D1D641EEFD1BDE800
:104360003840002200214FF0FF30FFF775BC00BF3E
:104370005C02002010B5074979441831064C7C4492
:10438000163404E00A68081D114488470146A1421A
:10439000F8D110BD2C000000480000004EF68851F6
:1043A000CEF20001086840F470000860BFF34F8F40
:1043B000BFF36F8F4FF00070E1EE100A70470000FE
:1043C0002FCFFFFF9844000084020020000000006F
:1043D0005BFEFFFFD8010000660200000000002025
:1043E0000248016841F470010160704788ED00E007
:1043F0000000000000000000010203040607080995
:1044000000F00DF8002801D0FFF7B4FFAFF30080F3
:104410000020AFF30080FDF78DFC00F002F80120D2
:10442000704700F001B800000746FFF785FF3846E7
:1044300000F002F8FBE7000080B5FFF759FD024AE3
:1044400011001820ABBEFBE72600020001488047A0
:1044500001480047E14300085D440008AFF30080D5
:10446000FFF79CFFFFF7CCFF0000000001020304F0
:10447000FFF7FEBFFFF7FEBFFFF7FEBFFFF7FEBF70
:10448000FFF7FEBFFFF7FEBFFFF7FEBFFFF7FEBF60
:10449000FFF7FEBFFFF7FEBFFFF7FEBFFFF7FEBF50
:1044A000FFF7FEBFFFF7FEBFFFF7FEBFFFF7FEBF40
:1044B000FFF7FEBFFFF7FEBFFFF7FEBFFFF7FEBF30
:1044C000FFF7FEBFFFF7FEBFFFF7FEBFFFF7FEBF20
:1044D000FFF7FEBFFFF7FEBFFFF7FEBFFFF7FEBF10
:1044E000FFF7FEBFFFF7FEBFFFF7FEBFFFF7FEBF00
:1044F000FFF7FEBFFFF7FEBFFFF7FEBFFFF7FEBFF0
:10450000FFF7FEBFFFF7FEBFFFF7FEBFFFF7FEBFDF
:10451000FFF7FEBFFFF7FEBFFFF7FEBFFFF7FEBFCF
:10452000FFF7FEBFFFF7FEBFFFF7FEBFFFF7FEBFBF
:10453000FFF7FEBFFFF7FEBFFFF7FEBFFFF7FEBFAF
:10454000FFF7FEBFFFF7FEBFFFF7FEBFFFF7FEBF9F
:10455000FFF7FEBFFFF7FEBFFFF7FEBFFFF7FEBF8F
:10456000FFF7FEBFFFF7FEBFFFF7FEBFFFF7FEBF7F
:10457000FFF7FEBFFFF7FEBFFFF7FEBFFFF7FEBF6F
:10458000FFF7FEBFFFF7FEBFFFF7FEBFFFF7FEBF5F
:10459000FFF7FEBFFFF7FEBFFFF7FEBFFFF7FEBF4F
:1045A000FFF7FEBFFFF7FEBFFFF7FEBF43010001AD
:1045B000221008100524F4000A0600020B224018FD
:1045C0001007F53500088F360008D904211F13198C
:1045D00038109006370008F13700080001124D1816
:1045E000124504125504125D04100D090243000225
:1045F0000100C0320904000001020B101E05240056
:104600001001052401000104240202052406000112
:104610000705820308001009040100020A4E100277
:10462000070501027B200107058107F228004422CB
:104630004007228107200100090744F22C0444109E
:1046400003A5420008C30412C70412CB0412E904F4
:104650001003A93F0008B10412C50412B90412D90D
:10466000041003054000082D041212471006020230
:104670000040830440577D17020349F005080403F6
:1046800009041A03000112019F1003C8010020C988
:104690000452C804212EA10852B40CF10B01200AC7
:1046A00002040101DC4400202C45002008210421E3
:1046B000346108F0031310020020FC485002080285
:1046C000028C40528C0421346108125848F3114482
:0F46D000024812846C12CC04F206142C52FF0123
:040000050800445D4E
:00000001FF
