:020000040800F2
:10000000D84B0020696700082D5B00082F5B0008B3
:10001000315B0008335B0008355B0008000000001E
:10002000000000000000000000000000375B000836
:10003000395B0008000000003B5B00083D5B0008E6
:1000400095670008996700089D670008A167000888
:10005000A5670008A9670008AD670008B167000838
:10006000B5670008B9670008BD670008C1670008E8
:10007000C5670008C9670008CD670008D167000898
:10008000D5670008D9670008DD670008E167000848
:10009000E5670008E9670008ED670008F1670008F8
:1000A000F5670008F9670008FD67000801680008A7
:1000B0000568000809680008415B00080D68000831
:1000C0001168000815680008196800081D68000814
:1000D00021680008475B00084D5B0008535B00087F
:1000E00025680008296800082D68000831680008A4
:1000F00035680008396800083D6800084168000854
:1001000045680008496800084D6800085168000803
:10011000595B00085F5B00085568000859680008D3
:100120005D68000861680008656800086968000883
:100130006D68000871680008756800087968000833
:100140007D6800088168000885680008655B000814
:10015000896800088D680008916800086B5B0008DA
:1001600095680008996800089D680008A168000863
:10017000A5680008A9680008AD6800080000000034
:10018000B1680008B56800082DE9F14FB0B092469B
:1001900004910DF142013A9A2B9199464A70002040
:1001A0000AE01AF8011B0498309A9047002804903E
:1001B00000F0B6860D98401C0D909AF8000050B1E2
:1001C0002528EED1002100220791089209910A9278
:1001D0000B910C9204E00D9800F0A4BE41F00101D7
:1001E0001AF8010F2028F9D023280CD02B2804D08E
:1001F0002D2805D0302809D00BE041F00201EFE7AF
:1002000041F00401ECE741F00801E9E741F0100199
:10021000E6E72A280FD1D9F8002052F8040BC9F8D4
:10022000002000280F9003D540420F9041F00401B8
:100230000AF1010A14E00F92DFF828380AE00F985B
:10024000984205DA00EB800402EB4402303A0F9248
:100250000AF1010A9AF80020A2F130000A28EED330
:100260009AF800002E2803D04FF0FF320E9229E0BA
:100270001AF8010F2A2809D1D9F8000050F8042BE8
:10028000C9F800000E920AF1010A1BE02D280CBFEC
:100290000AF1010A002000220E92DFF8C8470BE0A5
:1002A00040B90E9AA24205DA02EB820503EB450340
:1002B000303B0E930AF1010A9AF80030A3F13002A4
:1002C0000A2AEDD3ADF84010DFF89C07784400F51A
:1002D000F3609AF8001000F057FF08B11AF8010B0C
:1002E0008DF842009DF84200682805D19AF8000078
:1002F00068280CD1622106E06C2804BF9AF800003F
:100300006C2804D171218DF842100AF1010A12A85B
:1003100006901AF801BBBBF125012CD01C3900F066
:10032000D081091F022940F2CC81133900F02385C6
:10033000093900F0C681891E00F0B885491E00F019
:100340006585491E022940F2BC81091F00F05E85C7
:10035000491F00F02881491E00F00D85491E00F05C
:10036000D080C91E0DD0891E00F00585C91E00F081
:10037000028500F0A6BD25238DF84830012100F04C
:10038000ABBDD9F8000050F8044BC9F80000002CB0
:10039000059440F0A3802B994878002800F09980BC
:1003A0004FF0FF340FF6843000F0FAFE201A40F0D0
:1003B000B78500F092BD6D1E40F0A9853096079D6F
:1003C00012AF75B1309E17F8012B02A9304600F02C
:1003D00073FE002801D46D1EF5D10028309640F040
:1003E0009F850A9D3020002D8DF804000CDD309E85
:1003F000012301AA02A9304600F06EFE002840F059
:100400008F856D1EF4D13096059F089D75B1309E85
:1004100017F8012B02A9304600F04EFE002801D447
:100420006D1EF5D10028309640F07A850B9D302066
:10043000002D8DF804000CDD309E012301AA02A9D5
:10044000304600F049FE002840F06A856D1EF4D168
:10045000309605980899099D471875B1309E17F890
:10046000012B02A9304600F027FE002801D46D1EA2
:10047000F5D10028309640F053850C9D3020002D9A
:100480008DF804000CDD309E012301AA02A930463C
:1004900000F022FE002840F043856D1EF4D1309616
:1004A0009DF8400041077FF588AE2020002C8DF894
:1004B00004007FF782AE309D012301AA02A92846DD
:1004C00000F00AFE002840F02B85641EF4D1309520
:1004D00073E60FF66440059000F0FFBC0E9D002D02
:1004E00004D5204600F07CFE044607E02A4620465C
:1004F00000F092FE002814BF041B2C46089400F064
:10050000ECBCD9F8001051F8040BC9F8001020F029
:100510000004002121F0FF3512ABCDE9024505931F
:10052000DDE9022306993C2413B90AB90E9898B163
:1005300002F00F053035641EEEB23A2EA8BF273503
:10054000120942EA03721B090D5508BF002A03D0A5
:1005500005980D19A842EBD308190590C4F13C0287
:100560000E98089282420ADABDF84010821A4FF6BD
:10057000EF7001400A92ADF8401000F0AEBC0028C8
:1005800040F1AB849DF8400000F01400102840F0CA
:10059000A4840F9B07990A985B1A1B1A9A1A002ABF
:1005A00040F39B84E5E32B99487820B14FF0FF346A
:1005B0000FF65430F8E69DF84200622861D06828B2
:1005C00017D06A283FD06C2806D0712847D07428ED
:1005D0002CD07A281DD064E0D9F8001051F8040B13
:1005E000C9F80010002868D14FF0FF340FF6303002
:1005F000DAE6D9F8001051F8040BC9F8001020B958
:100600004FF0FF340FF61830CEE60D99018000F060
:1006100064BCD9F8001051F8040BC9F80010002888
:100620004BD14FF0FF340FF6F820BDE6D9F800109B
:1006300051F8040BC9F8001000283ED14FF0FF34E8
:100640000FF6DC20B0E6D9F8001051F8040BC9F819
:10065000001080B94FF0FF340FF6C420A4E6D9F89B
:10066000001051F8040BC9F8001020B94FF0FF3406
:100670000FF6AC2098E60D9AD317C0E9002300F0DE
:100680002CBCD9F8001051F8040BC9F8001020B99F
:100690004FF0FF340FF6882086E60D99017000F0C8
:1006A0001CBCD9F8001051F8040BC9F8001020B98F
:1006B0004FF0FF340FF6682076E60D99016000F0E8
:1006C0000CBCD9F80020D21D22F00702C9F8002086
:1006D000D2E900010832C9F80020CDE90201C80FB3
:1006E00002D007982D210AE0BDF84000810702D50D
:1006F00007982B2103E0C00705D50798202112AAEF
:100700001154401C0790DDE90223079912A8CDE996
:100710002C2308444BF020016129059021AC0BD01B
:100720000E99002902D506210E9105E001BF4BF07C
:100730002001672901220E92DDE9022359004915A3
:10074000491C0DD11A030BD0ABF1610503211A2D01
:10075000089102D20FF6E41110E00FF6E4110DE05B
:1007600059004915491C0DD11A030BD1ABF1610594
:1007700003211A2D089119D30FF6CC11032200F092
:1007800077FDAAE3DDE90201CDE92E01DDE92E23A3
:1007900023F00047B7F5801F22F000060DD200229B
:1007A000002F08BF002E009203D116E00FF694111F
:1007B000E4E76A4600F068FD0FE0DFF8DC08DFF8E8
:1007C000DC1800EB17500090DDE92E234FF0FF30CE
:1007D0001940DFF8CC7810403943CDE902014BF0E5
:1007E000200061280DD1059830210170821CBBF1D9
:1007F000610F05920CBF7821582141700798801C29
:100800000790DDE9020120F0000231F0004308BF4B
:10081000002A02D10026002568E14BF02008B8F13B
:10082000610F40F0B4800E98002847BF212101914C
:10083000401C0190019FDDE92C017F1C0022002358
:10084000DDE9024500F058FD00998DF8842038BF9D
:1008500085F00045091F002F00910DF1850653DD3D
:10086000204629460022002300F05EFD4CD24800BD
:10087000400D00F11C0212D0002A10DD40F2FF737F
:100880009A4206DBDFF81C1805F000400143002007
:1008900011E06FF31E5141EA025120460BE024F0B3
:1008A000000035F0004108BF00280FBF29461C2278
:1008B000294600F051FD04460D4600F0EBFDFF1FF8
:1008C000002F804609DD00F003FE02460B4620465D
:1008D000294600F00FFE04460D46F01D0721B8F131
:1008E000000F0CDD491E5EBF08F00F0200F8012D5D
:1008F0004FEA2818F3D502E0002200F8012D491E26
:10090000FAD5C61D002FABDC0DF18500361A019813
:100910008642D8BF304600280DF1850430D4B0425D
:1009200006DA0DF185010A5C082AA8BF0F2100DA5A
:100930000021024621AB134400E0401E13F8015988
:10094000521E8D42F9D00F2904D10DF185018B5C27
:100950005B1C8B54002A04D50099091D21AC401C56
:100960000091411E0CD46218ABF13A061378303373
:10097000DDB23A2DA8BFF318491E02F80139F5D5AA
:100980000E99002940F1B080421E0E92ACE0009911
:10099000DFF8142747F29750414391FBF2F2DDE96B
:1009A0002C45009225F00045D2F1070204DD2046D7
:1009B000294600F04EFB0BE052420020DFF8EC1617
:1009C00000F047FB02460B462046294600F004FE95
:1009D0000446B8F1660F0E9806BF009F0A37062737
:1009E0003F18142FC8BF142730200D468DF88400FF
:1009F0000DF18506002F39DD2046294600F010FF55
:100A000001460A4606F1080304200A26B2FBF6F660
:100A100006EB860EA2EB4E02303203F8012C0A22BE
:100A2000B6FBF2F202EB820EA6EB4E063036401E0B
:100A300003F8026DE9D1083F002F03F10806D9DD64
:100A4000084600F001FF02460B462046294600F00A
:100A500051FD0022DFF8583600F004FF04460D4631
:100A6000CAE700BFCBCCCC0C245D00000DF18500A3
:100A7000361A0DF1850404E00098401E761E0090A1
:100A8000641C20783028F7D0B8F1660F02D10099A5
:100A9000491C04E0B8F1650F0CBF012100210E983C
:100AA00008188642B8BF701E00281DD4B04204DA70
:100AB000215C3429C8BF392100DC30210246631E85
:100AC0009D1800E0401E15F80169521E8E42F9D0B3
:100AD000392902D1A15C491CA154002A04D50099EE
:100AE000491C1C46401C00910646009D00F08CFFEE
:100AF000406A0778DDF8388030B2002802DC012631
:100B00000FF248644BF02000662808BF6D1C16D019
:100B1000672846D128B210F1040F48DB404546DA79
:100B20009DF840006D1C010703D430B24045B8BFAA
:100B3000804628B2B8EB000848BF4FF000080FFA13
:100B400085FBBBF1000F00F3B5800898411C0891AC
:100B5000302205990A54B8F1000F03DC9DF84000DB
:100B6000010704D50898411C089105990F5418EB0A
:100B70000B0FB8BFC8F100052DB268420B90A84416
:100B800032B29045B8BF4646059B089836B20996E2
:100B900032462146184400F06BFBA8EB06000C908F
:100BA000D2E0BBF1610F17D14FF0700B19E030B2FA
:100BB000404504DA9DF840100A0758BF8046B8F156
:100BC000010848BF4FF00008BBF1670F14BF4FF09A
:100BD000450B4FF0650B04E0BBF1410F08BF4FF030
:100BE000500B0898411C0891B8F1000F059914F8B2
:100BF000012B0A5403DC9DF8400001071AD5089820
:100C0000411C0891B8F1000F05990F5412DD761EB2
:100C100030B280450598089BB8BF464632B221469F
:100C2000184400F025FB089936B271180891A8EB1A
:100C300006000B9005980899084429B2002980F80D
:100C400000B003D42B224270821C04E02D2242709B
:100C50000D46821C6D4200212CAB28460AE004465A
:100C60000A2094FBF0F000EB8005A4EB450403F8A8
:100C7000014B491C00B20028F1DC012906DC4BF0D5
:100C80002000652804BF302002F8010B00292CAB9E
:100C900008D1302002F8010B06E0491E585C3030C4
:100CA00002F8010B0029F8DC059908980844121A8B
:100CB000099249E030B229B288421CDA0598089BB3
:100CC00032B22146184400F0D3FA089936B27118AE
:100CD000ABEB0606B8F1000F08910B9603DC9DF80C
:100CE0004000020704D5059847540999491C099109
:100CF000CDF8308028E00598089B2AB22146184498
:100D000000F0B6FA0898761B5844B8F1000F089026
:100D100003DC9DF840100A0703D5411C0891059992
:100D20000F5430B280450598089BB8BF464632B292
:100D300004EB0B01184400F09BFA089836B2301807
:100D40000890A8EB06000B909DF8400000F01400FE
:100D5000102840F0C280079A08990B988A180999C0
:100D600082180C988A1882180F98824280F2B580F7
:100D7000821A0A92B1E09DF84200622808D06828E1
:100D80000ED06A2814D06C281FD0712810D01CE017
:100D9000D9F8001051F8040BC9F80010C0B21AE0DD
:100DA000D9F8001051F8040BC9F8001080B212E015
:100DB000D9F80020D21D22F00702C9F80020D2E99C
:100DC00000010832C9F8002006E0D9F8001051F8F7
:100DD000040BC9F800100021CDE902019DF8400084
:100DE00001075AD5DDE90223002B08BF002A54D0A1
:100DF0004BF02000782850D1079812A930220A54CD
:100E0000401C431C079301F800B046E09DF84200E7
:100E1000622808D068280ED06A2814D06C281FD009
:100E2000712810D01CE0D9F8001051F8040BC9F853
:100E3000001040B21AE0D9F8001051F8040BC9F8BC
:100E4000001000B212E0D9F80020D21D22F00702F3
:100E5000C9F80020D2E900010832C9F8002006E0F4
:100E6000D9F8001051F8040BC9F80010C117CDE9EA
:100E70000201002902D507982D210AE0BDF84000A3
:100E8000810702D507982B2103E0C00705D50798F5
:100E9000202112AA1154401C079012A8079901445E
:100EA000059102A8594600F04FF816E0012007907E
:100EB000D9F8000050F8041BC9F800008DF848105C
:100EC0000BE025210122BBF1000F8DF8481007929D
:100ED00003D08DF849B0022107910F9A07980A991B
:100EE0000C9C121A0898521A0B99121A0998521A45
:100EF000121A9DF84000141B41073FF560AA2020FC
:100F0000002C8DF804007FF75AAA309E2546012355
:100F100001AA02A9304600F0DFF800283FF44BAAEE
:100F20004FF0FF3031B0BDE8F08F00007072696E95
:100F300074665F733A206261642025732061726772
:100F4000756D656E740000002DE9FC4307466F293E
:100F50003E6908BF082405D041F02000782814BF5E
:100F60000A2410243C25D7E90023642918BF6929E5
:100F70009046994605D1002B03D5D8F1000869EBBE
:100F80004909B9F1000F08BFB8F1000F0CD1386B57
:100F900050B9082C39D197F83800010735D53020E1
:100FA0003B2586F83B0030E08DF80010404649466E
:100FB0002246E31700F02CFD3032D0B26D1E3A28E5
:100FC000019504DB9DF80000A0F151018A187255CB
:100FD000404649462246E31700F01AFD80465FEA84
:100FE000010908BFB8F1000F03D0F86871198842F1
:100FF000DCD3082C09D197F83800010705D5705DBE
:10100000302802D06D1E30207055C5F13C02BA6107
:101010007119F960386B824208DA821A3A624FF627
:10102000EF70398F01403987BDE8F38300280ED572
:1010300097F8380000F01400102808D17B6B79690C
:10104000386A5B1A1B1A9A1A002AC8BF3A62BDE8AE
:10105000F3832DE9D04306460F4614464FF00008AF
:10106000DFF8509012E0E00707D542464B46304685
:10107000394600F0F7FB06460F46404649464246D1
:101080004B4600F0EFFB641080468946002CEAD105
:1010900030463946BDE8D08302FCFFFFFFFF0F80DA
:1010A0000000E03F0000F07FA08601000000F03F5C
:1010B00084D797410000244010B503460C461146E2
:1010C000A0689847A06020B1E06A401CE062002060
:1010D00010BD4FF0FF3010BDF8B505460E4617465F
:1010E0001C4600205CB117F8011BB068A847B0602F
:1010F00030B1F06A401CF0620020641EF3D1F2BDF2
:101100004FF0FF30F2BD00007072696E74665F735D
:101110003A20256E20646973616C6C6F776564009A
:101120007072696E74663A2062616420256E206177
:101130007267756D656E7400000000006E616E0070
:101140004E414E00696E6600494E4600300030B494
:10115000002513E050F8042BD30744BFA9F1010385
:101160009A18091F042942F8045BFAD213468C0727
:1011700044BF15809B1CC90748BF1D7050F8041B55
:101180000029E7D130BC7047C9B202788A421AB14F
:101190001CBF10F8012FF9E718BF002070472E0080
:1011A00080B500B906A005490B681BB122220021B9
:1011B000984701E000F0AFFC222002BDC8470020A4
:1011C000636F6E73747261696E742068616E646CB3
:1011D00065723A20626164206D65737361676500B2
:1011E00000F10103810704D010F8011B820781B1CF
:1011F000FAD10268A2F10131914311F0803104BFAC
:1012000050F8042FF6E709BAB1FA81F100EBD100EA
:10121000401CC01A70470000C9B2830706D0521E96
:1012200022D310F8013B9942F7D11FE0083A13D3BB
:1012300002F1040241EA012141EA014150F8043B74
:10124000121F21BF4B40A3F1013C2CEA030C1CF000
:10125000803FF3D0C9B2001F083210F8013B521E84
:1012600028BF91EA030FF8D818BF0120401E70472D
:101270004AB1000011F8013B521E00F8013B1CBFAF
:1012800011F8013BF8E7704710B5144600F002F87A
:10129000226010BDC1F30A5343B14A0012F5001F8A
:1012A00028D2A3F2FE32A1EB0251704750EA410C62
:1012B00020D001F0004C31EA0C01B1FA81F204BFF8
:1012C000B0FA80F3D2180B3AB2F120032CBF00FA27
:1012D00003F1914041EA0C013EBFC2F1200C20FA1B
:1012E0000CF319439040524240F2FD33D21A01EB05
:1012F00003517047002270474FF4001C1CEB410F54
:1013000094BF1CEB430F09E041EA030C50EA4C0C7C
:1013100052EA0C0C03D2994208BF9042704714BFA6
:101320008B428242704700004FF4001C1CEB410FBF
:1013300094BF1CEB430F09E041EA030C50EA4C0C4C
:1013400052EA0C0C03D28B4208BF8242704714BF92
:101350009942904270470000124254D440F2FF7C00
:101360001CEA11530FD0634531D09B1863453CBF35
:1013700001EB0251704701F0004141EA0C5100209D
:10138000AFF30080704750EA410320D001F0004CD9
:1013900091EA0C011CD0B1FA81F30B3B9A420DD9B2
:1013A000D21A994051EA0C01C3F1200C20FA0CFC2E
:1013B00061449840531C40F2FF7CD7E7914041EADA
:1013C0000C01C2F1200C20FA0CF319439040704735
:1013D000B0FA80F31533202BE0D3202AEED3203A45
:1013E000203B9A4209D9D21A00FA03F141EA0C01D2
:1013F0000020531C40F2FF7CB8E700FA02F141EAFA
:101400000C0100207047524240F2FF7C1CEA11534D
:101410000DD06345DBD0B2EB030C3CBFA1EB025116
:1014200070470CF1010221EA035141F4801150EAA6
:10143000410CCCD001F0004C352A27DC30B481EAD5
:101440000C01B2F1200309DAC2F12003044601FACB
:1014500003F5D0402843D1409C400CE0C3F120026A
:10146000450020FA03F418BF44F0010421FA03F008
:1014700091400C43002174F1004550F1000051EB04
:101480000C01244230BC7FF47BAF704761460020E2
:1014900076E70000C1F30A5340F2FE329B1A14DDD6
:1014A000D3F120034FEAE17208DDC90241EA50514D
:1014B00041F00040D84080185040704703F2E130BE
:1014C00010B1D24382F00040704700207047000006
:1014D000C11768B14840401AB0FA80F29040D21C5F
:1014E000C907C2F5846241EA025202EBD0214005ED
:1014F0007047000070B44FF0004591EA030F40F1CF
:101500000D836B40841A71EB030603D2001BB141BB
:10151000121973414FF4001C1CEB410F34BF7CEBDC
:10152000430442E00C0DA4EB1356352E4FDC45EA84
:10153000C323DB0A45EAC121C912B6F120050DDD3E
:1015400063FA05F6EB4086EA0305124218BF45F040
:101550000105C01851F100010CD213E062FA06F542
:10156000F2405540F3415A40B340F3405A4080188E
:10157000594107D349085FEA30005FEA350528BFC3
:1015800045F0010501F58011420875F1004250F166
:10159000000041EB04514E0016F5001F70BC38BF2F
:1015A00070470020090D090570471CEB410F10D250
:1015B00052EA43060BD0BCEB410F05D80C0DAB43F0
:1015C000661E342EB6DD02E0AB438018594170BC74
:1015D000704770BC70470000F0B540F2FF7581EABB
:1015E000030C0CF0004C15EA11541DBF15EA1357FB
:1015F000AC42AF42E5E0BC41C1F31301C3F31303B6
:10160000801A994143F4801304D2641E400049417A
:1016100080185941C90241EA5051B1FBF3F603FB6E
:101620001611A2FB0675D7EBC020A94102D2761E87
:1016300080185941C90241EA5051B1FBF3FE03FB46
:101640001E11A2FB0E75D7EBC020A94103D2AEF14B
:10165000010E80185941890241EA9051760546EA07
:101660008E2EB1FBF3F603FB1611A2FB0675D7EB2A
:101670008020A94102D2761E80185941C90241EA50
:1016800050514EEA060EB1FBF3F603FB1611A2FB16
:101690000675D7EBC020A94102D2761E80185941A9
:1016A000C90241EA5051B1FBF3F703FB1711A2FB4A
:1016B0000735D3EBC020A94167F100070CBF0042FA
:1016C00047F0010766F3D5274FEA1E31B80814F535
:1016D000806412DDBD0775F1004250EB0E5051EBF6
:1016E000045111F5801F5CBF41EA0C01F0BD4CF0C4
:1016F0007F6141F0E0410020F0BDBD076D0840EA88
:101700000E5041F48011D4F10104B4F120060ADA3C
:10171000C4F120060200E04001FA06F3E14018435C
:10172000B24015430EE0342C13DCC6F1200445EA28
:1017300040056D0820FA06F2154321FA06F0A14093
:101740000D43002175F1004250F1000051EB0C01F6
:10175000F0BD00205FEA0C01F0BDCFB992185B41EB
:10176000B3FA83F704BFB2FA82F6BF190B3FB7F1A1
:1017700020062FBF02FA06F3BB40C7F1200622FA6B
:1017800006F638BF3343BA401CB1E419641E33E790
:101790007F4231F00041B1FA81F404BFB0FA80F623
:1017A000A4190B3CB4F120062FBF00FA06F1A140AA
:1017B000C4F1200620FA06F638BF3143A0403C1B96
:1017C0001AE7AC421ABF05EA1357AF4212E050EADB
:1017D00041061CBF52EA4306BFE750EA41073046C4
:1017E00061461CBF41EA0551F0BD52EA430C08BFF7
:1017F000C143F0BD00204FF4001616EB410F98BF17
:1018000016EB430F08BF16EB410F24BFC14305E0A1
:1018100016EB430F0CBF61464CEA0551F0BD0000CA
:10182000400D491840EA81200CD2490DA1F5806194
:10183000491C40F0004005DBD1F11F0154BFC840F6
:10184000C017704700207047014648B1B0FA80F1D8
:101850008840C91CC1F58461090501EBD021400510
:1018600070470000B0B581EA030C0CF0004C40F268
:10187000FF7515EA11541DBF15EA1357AC42AF426C
:1018800039E0E41923EA455343F48013C90241F0D7
:10189000004141EA505EC7021100A7FB0202002886
:1018A0004FF00000EEFB01204FF00001E3FB0721A9
:1018B00018BF42F00102401800214941E3FB0E012C
:1018C000A4F580640F0302D252004041494154F113
:1018D00001046CDD470872F1004250F1000051EB49
:1018E0000451A1F580115CBF41EA0C01B0BD4CEA86
:1018F00005510020B0BD05EA1357AC4214BFAF42FA
:1019000041E050EA410E1CBF52EA430E02E061463C
:101910000020B0BD24423C441BD15FEA070EF6D044
:10192000090302BF01460020AEF1140EB1FA81F79F
:10193000AEEB070401FA07FE0C37C7F1200100FAED
:1019400007F7C8404EEA000E23EA455343F48013DC
:10195000A2E733F00043B3FA83F704BFB2FA82FE82
:1019600077440B3FE41BB7F1200E2FBF02FA0EF3B2
:10197000BB40C7F1200E22FA0EFE38BF43EA0E0329
:10198000BA40641C82E750EA410E14BF52EA430E8B
:101990006FF000014FF4001717EB430F8ABF194691
:1019A00017EB410FB5E74CEA05510020B0BDD4F16B
:1019B0000104B4F120070FDAC4F12007520828BF50
:1019C00042F0010210FA07F501FA07F7E1BF2A43D6
:1019D000E0403843E1400FE0352C98DCC7F12004AB
:1019E00052EA400220FA07F218BF42F0010231FA2F
:1019F00007F0A1400A43002172F1004250F10000BB
:101A000051EB0C01B0BD000000487047840200207B
:101A1000D3BBD9B1B2F5803F5BD2022A1ED98C4626
:101A2000B1FBF2F102FB11C31B0443EA1043B3FB09
:101A3000F2FC02FB1C3380B240EA0343B3FBF2F03A
:101A400002FB103240EA0C4000237047022A05D9FD
:101A50008446B0FBF2F002FB10C270474AB105D1D8
:101A600000F0010249085FEA3000704700220023BD
:101A7000704700F009B90B000200002100207047F8
:101A8000F7D3002200237047904271EB030CF2D38E
:101A900070B5B1FA81F4B3FA83F52C1BA340C4F1FD
:101AA000200532FA05F63343A2405FF00046E640D7
:101AB00002E05B085FEA3202841A71EB030524BF7F
:101AC000204629467641F4D302000B003000002165
:101AD00070BD70B5B1FA81F4B2FA82F5C4F1200498
:101AE0006419B4F12006DAD3B2405FF00044F44048
:101AF000002502E052085FEA3303C61A71EB020EBA
:101B000024BF3046714664416D41F3D302000B009F
:101B10002000290070BD012000F0B8B8841A71EBD4
:101B2000030604D26E40001BB141121973414FF4F9
:101B3000001C1CEB410F34BF7CEB430683E00C0D13
:101B4000A4EB1356362E00F37C80012E45EAC32306
:101B500041DC43EA525312BFD20292025B082405D1
:101B600045EAC12141EA5051D2EBC020994125D428
:101B700007D1B0FA80F610FA06F162D000202036C4
:101B800008E0B1FA81F6B140C6F1200220FA02F273
:101B90001143B0404FEAF474B4EB465434F00106FC
:101BA0004FEA74040AD8D6F50016760D04F0004406
:101BB000F04061FA06F25040F1404840C00A40EA65
:101BC000415021F0004128BF5FEA500550F100006C
:101BD00044EBD12135E0DB0A45EAC121C90AB6F15F
:101BE00020050EDD42EA0242120CC5F1200603FA7E
:101BF00006F6EB4042EA06056D42984161F10001AC
:101C00000DE062FA06F5F240554063FA06FC82EAFE
:101C10000C02F3405A406D42904161EB030111F414
:101C2000801F05D1641E620502D06D00404149410C
:101C300021F48011430875F1004350F1000041EB9D
:101C4000045170BC70471CEB410F15D223F00043C8
:101C500052EA43060BD04FEA4C0CBCEB410F04D8C0
:101C60000C0D661E342EB7DDEBE7801A994150EA61
:101C7000410608BF0021E4E708BF1CEB430F28BF63
:101C80006FF00001DDE700007047000080B5AFF3A2
:101C90000080024A11001820ABBEFBE726000200BC
:101CA0000EB418B504460898012817D1A06B20F48B
:101CB0008030A063E168DFF8AC080140E160E168D2
:101CC00021F44011E1600F98012803D1E06840F44D
:101CD0008010E060204600F020FC0FE0E06840F05B
:101CE0004000E060204600F018FC0C990029A16B30
:101CF0000CBF41F4803121F48031A16306990129A0
:101D000007D1A16841F00601A160A16841F020015E
:101D1000A16000F022BC10B5022A58D1DFF8482893
:101D2000DFF8483852189A4238BF4FF4705150D3F8
:101D3000DFF83C28DFF83C3852189A4238BF4FF49D
:101D4000605146D3DFF83028DFF8303852189A4215
:101D500038BF4FF450513CD3DFF82428DFF8243843
:101D600052189A4238BF4FF4405132D3DFF8182846
:101D7000DFF8183852189A4238BF4FF4305128D340
:101D8000DFF80C28DFF80C3852189A4238BF4FF4AD
:101D900020511ED3DFF80028DFF8003852189A428D
:101DA00015D3DFF8FC47DFF8FC276418944238BFEE
:101DB0004FF400510DD3DFF8F027DFF81038511839
:101DC00099422CBF4FF4C0514FF4E05101E04FF461
:101DD0001051C26822F47052C260C2681143C160DF
:101DE000002010BD816841F0010102E081684908CE
:101DF000490081600020704738B504460025E0683E
:101E000020F0C0400129E0600FD1E06840F00050B0
:101E1000E060012000F0ECFB60696D1CC10701D49B
:101E2000322DF6D3322D11D10EE069B9E06840F0C1
:101E30008040E060012000F0DBFB60696D1CC107A1
:101E4000F0D5322DF6D3EDE7012032BD002032BDB2
:101E50000EB42DE9F043054604460026002100207B
:101E600004EB8102491C0F29C2F80401F8D3DDF804
:101E70004490B9F1000F05F500670AD1786840F089
:101E800002007860A06B40F40010A06300F095FBA6
:101E900006E0A06B20F40010A063A06B40F40020CB
:101EA00005F56061A0630E603A683A600C980128FD
:101EB00005D1099A002A14BF0121002100E0032165
:101EC000204600F099F81021204600F06BF800B190
:101ED0000126204600F07CF800B101260020386180
:101EE00078612A46F8614FF67F334FF0904C4FF0FF
:101EF000006E002503E00D600D618B60401C0799AA
:101F0000884211D202EB401101F51061D1F8008036
:101F1000B8F1000FEFD5002806BF02F51068C8F829
:101F200000E0C1F800C0E7E7002003E00D600D61AC
:101F30008B60401C0799884211D202EB401101F5D9
:101F40003061D1F80080B8F1000FEFD5002806BF4E
:101F500002F53068C8F800E0C1F800C0E7E738696A
:101F600020F480703861A5616FF0804060610A984C
:101F700000F01CFBDFF858060143A1610D9818B171
:101F8000A06940F00800A061B9F1010F05D1A06976
:101F900040F0804040F00400A0613046BDE8F0030E
:101FA0005DF810FB81B000228901009241F0200110
:101FB00001610099DFF81C26491C9142009104D26E
:101FC00001698A06F5D4002000E0032001B07047C3
:101FD00081B000210091102202610099DFF8F42500
:101FE000491C9142009104D20169CA06F5D400202F
:101FF00000E0032001B0704700F500600268114363
:102000000BE200F50060806810F0060006D00228A0
:1020100018BF062801D1022070470F20704770B505
:102020000C784E782546012304F00F0400EB45128E
:1020300003FA04F4012E00F50060DFF89C350DD1A1
:10204000C669A4B2344302F51062C4611068040486
:1020500012D400F013F844EA85540AE0C56945EA51
:10206000044502F53062C5611068040404D400F030
:1020700005F8234303431360002070BD10688C688B
:10208000C978C4F30A0444EA8144704730B500F0CB
:1020900035F80FD100F5106000F01EF8ADB2AC437A
:1020A00000F047F99BB224EA0303D3610268DFF82A
:1020B0002C150DE000F5306000F00EF824EA054420
:1020C00000F037F924EA0344D4610268DFF8101500
:1020D0000A400260002030BD0468002C07D5046867
:1020E00044F000640460056845F080450560D46BE9
:1020F0000D7805F00F0503FA05F570470B784C785D
:1021000000F5006200EB43100123012C7047F8B585
:102110000B78DFF8D064DFF8D07400EB43154B7810
:10212000012B00F5006460D14B6905F51065002BAB
:102130002B6909D11F402F612E6946F400262E61BC
:102140002B69DB0CDB0422E0DB0CDB042B612B694D
:102150001F402F618B682F69D1F814C09C44ACF1EB
:10216000010CBCFBF3F306EAC3463E432E612B6928
:102170004E69C6F3120633432B61CB78012B07D18E
:102180002B6923F0C0432B612B6943F000532B6173
:10219000012A03D10869002852D050E02B6843F08F
:1021A00004432B60CE78012E0BD0486900285AD00A
:1021B000606B0978012201F00F018A4010436063CF
:1021C00051E0A368DC0504D42B6843F000532B6076
:1021D00003E02C6844F080542C6000920A784B692C
:1021E000C9689BB200F0ACF83DE005F530652869A0
:1021F000C00CC0042861286907402F618B684869BA
:1022000040B92869C3F3120303432B61286940F4E2
:1022100000200FE01818401EB0FBF3F080B22B69CD
:1022200006EAC0461E432E612B698E687043C0F3D8
:1022300012001843012A286102D1C86800B1686100
:10224000C87801280BD1A068C10504D4286840F0E3
:102250000050286003E0296841F080512960286817
:1022600040F0044028600020F2BD30B50B78DFF864
:10227000785300EB43144B78012B38D14B6904F5AC
:102280001064002B236909D11D402561256945F49F
:10229000002525612369DB0CDB0414E0DB0CDB0487
:1022A000236123691D4025618B684D69AB4288BF5E
:1022B0002B464B61236943F40023236123694D6955
:1022C000C5F312052B43012A236101D1086928E0D7
:1022D000236843F0044323604A6942B300F5006079
:1022E0000123426B00F027F81A4342631FE004F514
:1022F00030642069C00CC004206123691D40256141
:10230000486908B188684861206940F4002020616C
:1023100020698B68C3F312031843012A206102D19C
:10232000C86800B16061206840F00440206000206F
:1023300030BDD463D469097801F00F018B40704738
:10234000B8B5059C64B9DB1C07E000EB023751F817
:10235000045B07F58057641C3D60B4EB930FF4D326
:102360000020B2BD38B5930802F00302002400F546
:10237000805003E0056841F8045B641C9C42F9D37B
:1023800013000CD00068009000230098521EDC005F
:102390005B1C95B2E040002D01F8010BF5D1084619
:1023A00032BD0A78497800EB421001290CBF00F5D4
:1023B000106000F530600168002904D41AB101688A
:1023C00021F080410160026842F4001202600020A6
:1023D00070470A7800EB42104A78012A0CBF00F5DA
:1023E000106000F53060026822F400120260C978C3
:1023F000032918BF022903D1016841F0805101600F
:102400000020704700F500600901026822F4FE62B6
:10241000026001F4FE610368194301600020704707
:1024200000F5606100F500600A68920892000A6099
:10243000416821F002010AE000F5606100F50060EA
:102440000A68920892000A60416841F00201416006
:10245000002070470146486989690840704700F5C7
:1024600000618869C9690840000C704700F5006187
:102470008869C969084080B27047024602EB411082
:1024800000F5306002F500628068516908407047CD
:10249000024602F5006302EB411218695B6B01F022
:1024A0000F0102F51062CB40DB01926803F080035C
:1024B000184310407047406900F00100704700F574
:1024C000106100F500600A68D20AD2020A60416811
:1024D00041F48071BBE710B5036CDFF81041A342F3
:1024E00000F5306002D30368002B14D4002303618D
:1024F0000129046944F400240461036943F01803CA
:102500000361036943F0C043036104D14261016880
:1025100041F080210160002010BD81B000210091B8
:10252000DFF8B010009A521C8A42009213D202695E
:10253000002AF7D500220092036943F001030361EA
:10254000009A521C8A42009205D20269D307F7D43E
:10255000002001B070470320FBE712BC5DF810FBC0
:1025600000000000BFFFBDFF405327FF00350C00F7
:10257000401E1BFF40420F0000DC0BFF804F12008B
:10258000808CF9FE20D6130060B6E5FE60E31600ED
:1025900000D3CEFE40771B00C05BB3FEC09121008C
:1025A00000CA91FE20753800E05459FE18B9A069A0
:1025B00040F01000A061A1697047A06B20F40020DA
:1025C000A063A06B20F4802070470000E09C4100D5
:1025D00000383C80410D030000800010007833EC8F
:1025E0000078F3EF0000F81FFFFF07E00B30544FB7
:1025F00038B5044600F010F814F1010F054602D07A
:1026000004480178641800F007F8401BA042FAD390
:1026100031BD00BF0000002001484068704700BF86
:102620000000002070B504008AB04BD0266804F585
:102630006F75687820B900212970204600F00EFCE3
:1026400003206870F16BC8055CBF00212161206820
:10265000FFF7CCFB83B000F048F80EBC2068FFF712
:102660001FFB00282CD120680021FFF7C5FB0021AB
:102670001C2000260AE010FB01F222443C32012318
:1026800053701170D180002300F028F862689142E5
:10269000F1D3002109E010FB01F2224402F5FE72A1
:1026A00000231170537000F019F862689142F2D360
:1026B00083B000F01AF80EBC2068FFF7C9FB18B110
:1026C00002206870012007E084F838000121697059
:1026D0002068FFF7B1FE00200AB070BD491CD6701B
:1026E0009360D6605361C9B27047211D6846342299
:1026F000FEF7BEBD10B500F0ADFA01D1022010BD4D
:1027000000F0AEFAFFF76EFB20689DE22DE9F84F6E
:10271000054684B02C6801942046FFF7CCFE0028C3
:1027200040F0888200F089FA002800F0838200F0EF
:1027300084FA800704D52868416901F002014161EB
:1027400000F07BFAC00635D52868816921F01001B8
:1027500081611C20266A06F00F014143681800F5CC
:10276000FE77C6F34340022812D147F6F0700642C6
:102770001BD0F968C6F30A122046FFF7F3FDF9688B
:10278000BA69C6F30A1001448018F960B8610CE018
:1027900006280AD1082205F571712046FFF7E2FDEF
:1027A000B969C6F30A104118B9612868816941F016
:1027B0001001816100F041FA000340F1B080286807
:1027C000FFF74DFE00242E4605004FF4004A48E076
:1027D000002C04BFD6F81002002809D106F571724A
:1027E00000211846FFF777FE02E008B1202088603C
:1027F000E1B2304600F076FB380720D50821C9F851
:1028000008103068DFF83884D0F840B000EB44118D
:1028100001F53060C345816803D3090448BFC0F89F
:1028200008A0304600F058FBC34508D330690128A2
:1028300005D1306806F571720121FFF74CFEF806EC
:1028400044BF1021C9F80810B80644BF2021C9F8B8
:102850000810B80444BF4FF40051C9F80810641CB4
:102860006D085BD0E807FAD53068E1B2FFF705FEE6
:102870000746019800EB441000F53069F807BBD516
:102880000121C9F808103368D3F840C003EB4411A4
:1028900001F530618A68D6F810E0BEF1010F02F050
:1028A000200030D1130706D5DFF894038445A3D365
:1028B000120430D4A0E710B1202088609CE712F009
:1028C000280F99D1DFF87803844501D3120422D46C
:1028D0001C206043304400F5017002680969C1F3AF
:1028E0001201521A0261002C416802680A444260D7
:1028F00004BFD6F8100200287FF47AAF306806F5DE
:10290000717201216EE7DFF83CE3F4457FF460AFBC
:1029100012047FF56AAFC1F808A06DE7354600F0F4
:102920008CF9400340F1A4802868FFF79FFD06461C
:102930000198002400F500600390002E34E0D7F8E1
:1029400008B0411A8B4588BF8B460BF103004FEA54
:10295000900A2869C0B200901FFA8BF3F968E2B2BE
:102960004846FFF7EDFCF868B96958448B44F860B5
:10297000C7F818B009EB441000F51060816989B2FE
:10298000514505D37869B969814201D20028D6D171
:10299000B8697969884205D309F50062516B0298DC
:1029A00001405163641C760862D0F007FAD52868AC
:1029B000E1B2FFF76DFD8046019800EB441000F591
:1029C00010691C22012104F00F0062438140AF18FE
:1029D000C9435FEAC87002911DD503994A6B0298FA
:1029E00002404A630120C9F80800296901290ED173
:1029F000B86C796C0144B964002C04BF286D0028C0
:102A000005D1286805F571720121FFF764FDE1B277
:102A1000284600F071FA5FEA087044BF0821C9F83F
:102A200008105FEAC86044BF1021C9F808105FEAC7
:102A3000486044BF4021C9F808105FEA887044BF6D
:102A40000221C9F808105FEA0860ABD53C37B869C5
:102A50007969D5F800908142A4D3D7F808A0081A64
:102A6000824588BF82460AF103004FEA900A81E757
:102A70002868019CFFF7EEFC002804F5006416D5D9
:102A8000616849084900616095F8F403012806D19E
:102A9000002185F8F413284600F02DFB02E02846BB
:102AA00000F062FA2868416901F00041416100F0DC
:102AB000C4F800050AD5A168C80744BF284600F03D
:102AC0003EFA2868416901F40061416100F0B5F8FF
:102AD000C00453D561684908490061601021286825
:102AE000FFF760FA019800214FF67F3218E000EB03
:102AF000411303F5106603F53063B260491C376873
:102B000027F400173760376847F0006737609A602E
:102B10001E6826F400161E601F6847F000671F60DD
:102B20006B689942E3D3E06940F00110E061286BE3
:102B300050B1D4F8840040F00B00C4F88400606CFD
:102B400040F00B00606409E0606940F4005040F020
:102B50002B006061206940F00B00206105F5717267
:102B6000206820F4FE60206029692868C9B2FFF758
:102B7000B2FC2868416901F48051416100F05DF8C0
:102B8000800416D52868FFF79AFC2868FFF739FA01
:102B9000E86000F037FB0146EA682868D2B2FFF728
:102BA000BAF8284600F0B5F92868416901F40051E7
:102BB000416100F042F8000707D5284600F0A5F96A
:102BC0002868416901F00801416100F036F8C0024F
:102BD00008D50021284600F0CFF92868416901F4A2
:102BE0008011416100F029F8800208D500212846B3
:102BF00000F0BEF92868416901F40011416100F05C
:102C00001CF8400007D5284600F0BAF92868416949
:102C100001F08041416100F010F840070AD52968B1
:102C20004C68600744BF284600F0AEF92868416848
:102C30000C43446005B0BDE8F08F2868FFF70ABC7C
:102C40000B30544F0A31544FFFF7EAFB002084F851
:102C5000BC0310BD044694F8BC232068012A7047C9
:102C6000A36A0122012B84F8BC2306D1A269012AA0
:102C700003D0826B42F480328263704710B5044601
:102C800094F8BC03012801D1022010BD012084F872
:102C9000BC0384F838102068FFF7B4FBD6E738B5DA
:102CA000054601F00F041C20444328190C0647BFB9
:102CB00000F13C04012000F5FE74002001F00F013A
:102CC00060702170A260E370607808B12178E180C3
:102CD000022B04BF0020207195F8BC03012801D10C
:102CE000022032BD012085F8BC0321462868FFF789
:102CF00096F97CE010B5044601F00F0200F09FF851
:102D000000F090F801D1022010BD00F092F8FFF71A
:102D1000BDF99BE738B500F026F803F5FE730025F2
:102D200000F028F808BF1A6110E001F00F011C2222
:102D300051430844D0F81402704738B500F013F836
:102D40003C33012500F016F808BF1A6102690068DB
:102D50000029D2B2194602D1FFF787FA01E0FFF746
:102D6000D6F9002032BD1C4601F00F051C235D433F
:102D7000431970475C6101F00F0100249C61DA6027
:102D80005D7019700469012C704738B505460C4612
:102D9000696804F00F00814201D2012032BD1C217C
:102DA000220605D54843284400F13C01012005E0F6
:102DB00011FB04F1681800F5FE7100204870012233
:102DC0008A7004F00F040C7095F8BC03012801D13F
:102DD000022032BD85F8BC232868FFF7E2FA34B937
:102DE0002969286805F57172C9B2FFF774FB0020E4
:102DF00085F8BC0332BD10B5044601F00F026068CF
:102E0000904201D2012010BD00F019F80023837018
:102E100000F008F801D1022010BD00F00AF8FFF719
:102E2000D8FA13E701F00F01017094F8BC130129DF
:102E30007047012284F8BC230146206870471C209B
:102E40004243A0180A0603D53C3001234370704763
:102E500000F5FE70002242707047000010B586B089
:102E60000446142101A800F021FA2268B2F1A04F13
:102E700030D10020834C00900222216841F00101F2
:102E800021604FF4C051206800F0010000900098CC
:102E90007D48019102920021039103220A210591AC
:102EA000049201A900F006FA606840F080006060BA
:102EB000002100910022606940F4804060616069F7
:102EC00000F4804000900098432000F00DFB432068
:102ED00000F027FB06B010BD00F57171D0F80404B6
:102EE00000F082BB0B461C225343C218D0F80404E6
:102EF000D2F8082200F0A6BB0B461C225343C2188E
:102F0000D0F80404926C00F0D4BBD0F8040400F0B4
:102F100060BC38B504460125E06808B9002503E027
:102F2000022818BF00F083FDD4F80404294600F0FD
:102F30003CFCD4F80404BDE8324000F006BC10B5F7
:102F40000446D4F8040400F033FC206800F5606007
:102F5000016841F001010160206A20B14B4801681D
:102F600041F00601016010BDD0F8040400F028BC57
:102F7000D0F8040400F04BBCD0F8040400F038BCD6
:102F8000D0F8040400F052BCD0F8040400F050BCA7
:102F900010B5017839BB3E4CC4F80404C0F8C442F3
:102FA0004FF0A04020600421002002222061E06157
:102FB00020626062E06220636160E260A26120469C
:102FC000FFF730FB08B100F032FD8021204600F011
:102FD0008EF840220021204600F068F8802201216E
:102FE000204600F063F8002010BD80B5D0F8C40280
:102FF000FFF780FBBDE802404FE010B51C461346CA
:10300000D0F8C4022246FFF74AFEBDE8104044E073
:1030100080B5D0F8C402FFF76DFEEBE780B5D0F8BD
:10302000C402FFF7B2FEE5E780B5D0F8C402FFF7AF
:10303000E2FEDFE7D0F8C42201F07F031C20434307
:10304000D018090602D590F83E00704790F8FE01AE
:10305000704780B5D0F8C402FFF710FECAE780B50C
:10306000D0F8C402FFF769FEC4E780B5D0F8C40207
:10307000FFF750FEBEE7D0F8C402FFF756BE054882
:1030800070470000303802400000024010ED00E0C0
:10309000AC3900208440002070470146002021B157
:1030A000022901D1012070470320704770B50068E4
:1030B000436A0C0003D143EA0242826215E0846A4B
:1030C00003EB1443002406E000EB8505641CD5F8EF
:1030D000046103EB1643E5B24E1EB542F4D300EB98
:1030E000810043EA0242C0F80021002070BD006860
:1030F00041620020704770472DE9F04104000F46FF
:1031000054D04B4E306800F00700B84202D200F0B5
:1031100073F84BD12068474D810712D5400703D57E
:10312000A96841F4E051A9602078010703D5A86897
:1031300040F46040A860A968A06821F0F001014354
:10314000A9602178C80729D56068012802D12968BB
:103150008A0305E0022818BF032803D129688A01E1
:1031600003D423E029688A0720D5A968890840EAA2
:103170008100A860FFF750FA8046A868616800F0F7
:103180000C00B0EB810F09D0FFF746FAA0EB080066
:1031900041F289318842F0D303202BE0306800F0FF
:1031A0000700874204D200F027F801D0012021E077
:1031B0002078410705D5AA68E06822F4E05202436E
:1031C000AA602178080706D5A968206921F4604122
:1031D00041EAC001A96000F039F8AA681649174B06
:1031E000C2F30312895CC84018601548006800F0FB
:1031F00021FC0020BDE8F0813770316801F0070143
:10320000B94270470D48006870470C480D4A006885
:1032100013680D49C3F3822206E00848094A006892
:1032200013680949C3F34232895CC8407047000003
:10323000003C0240003802400C6700080C000020EF
:1032400008000020083802408467000830B5144C9C
:10325000606800F00C00042802D0082802D01DE0AD
:10326000104830BD226820680023410202F03F026E
:1032700004D525680B49C5F3881003E020680A4986
:10328000C0F38810A1FB0001FEF7C2FB2168C1F367
:103290000141491C4900B0FBF1F030BD024830BD8E
:1032A0000438024000127A000024F400002200F0EA
:1032B000E1BB00002DE9F84F0D4600267249734A24
:1032C0000F23044601202F68B04000EA070880451C
:1032D00040F0CA804FEA460C032707FA0CF76FEA62
:1032E000070E6F6807F00309B9F1010F1CBF07F063
:1032F0000307022F12D1A768D5F80C900EEA070732
:1033000009FA0CF949EA0707A760676827EA00008D
:103310006F68C7F30017B74038436060B0002F797B
:1033200007F00307032F21D0E768D5F808900EEACD
:10333000070709FA0CF949EA0707E7602F7907F050
:103340000307022F12D1F70804EB870700F01C09CE
:10335000D7F820A003FA09FB2AEA0B0AD5F810B027
:103360000BFA09F949EA0A09C7F8209027680EEA1A
:10337000070E2F7907F0030707FA0CF747EA0E0745
:1033800027606F6817F4403F6ED0002700974FEA20
:10339000960C176847F48047176000F00C00176818
:1033A00007F48047009703FA00FE009F384F57F854
:1033B0002C7027EA0E0E374FBC4208BF002722D0E0
:1033C000354FBC4208BF01271DD0344FBC4208BF57
:1033D000022718D0324FBC4208BF032713D0314F09
:1033E000BC4208BF04270ED02F4FBC4208BF0527A0
:1033F00009D02E4FBC4208BF062704D02C4FBC4238
:103400000CBF0727082707FA00F0214F40EA0E00FB
:1034100047F82C006FEA08000F6800EA070C6F6895
:10342000FF0348BF48EA0C0CC1F800C04F6800EA2F
:10343000070C6F68BF0348BF48EA0C0CC1F804C012
:103440008F6800EA070C6F68FF0248BF48EA0C0C5F
:10345000C1F808C0CF6800EA070C6868800248BF5E
:1034600048EA0C0CC1F80CC0761C0F2E7FF62AAF70
:10347000BDE8F18F0069084018BF0120C0B2704755
:1034800002B9090481617047003C014044380240A0
:1034900008380140000002400004024000080240D9
:1034A000000C0240001002400014024000180240CC
:1034B000001C02400901020002D4294881547047CF
:1034C000284B02F00F021A4402F8041C7047264BE6
:1034D00019684FF6FF020002114000F4E060084353
:1034E000224908431860704770B51F4B1C68C4F32D
:1034F00002230124C3F10705052D2EBF0F2504FA71
:1035000005F56D1E1E1D072E34BF0023DB1E29404E
:10351000994004FA03F3BDE870405B1E1A40114362
:10352000C8E7010007D4012200F01F01104B8A40B8
:10353000400943F82020704710B5401EB0F1807F4D
:1035400001D3012010BD0B4C60600F214FF0FF3004
:10355000FFF7B0FF0021A16007202060002010BD10
:1035600000E400E018ED00E00CED00E00000FA05DA
:1035700000E100E010E000E010B508B9032010BD44
:1035800000F527730024DC615C621C6301B1996162
:10359000012119700270BDE81040FFF7F9BC1CB59D
:1035A0000022ADF8002009B9032016BD00F52E74E5
:1035B0002160C96A11B1684688476061002016BD64
:1035C000FFF713BD80B5D0F8B832032213B11A68E3
:1035D00090470246104602BD80B5D0F8B8220AB125
:1035E00052689047002002BD38B5044604F2AA256F
:1035F000284600F05AFC04F5257001210160828BF9
:10360000817D426011F01F0003D002280DD006D347
:1036100011E029462046BDE8344000F04BBA294667
:103620002046BDE8344000F086BB29462046BDE870
:10363000344000F0A6BB2046BDE8344001F08001D4
:10364000FFF7ECBC38B5044610460B0004F52572B4
:1036500023D11168032912D104F5AE714B680D68AE
:10366000AB420ED2ED1A04F5AE730D602A465968CE
:103670008A4288BF0A460146204600F073FC0020BB
:1036800032BD107A032804D1506A016909B120467D
:103690008847204600F06EFCF1E7107A0328EED14F
:1036A000506A8269002AEAD0204690470100E6D09D
:1036B00032BD38B5044610460A0004F5257538D1E8
:1036C000296802292ED1E269216A914206D2521A52
:1036D000E2610146204600F033FC0DE013D1A06901
:1036E000884210D3696888420DD20022002120460A
:1036F00000F026FC00206860002300220021204604
:10370000FFF7B3FC0EE0287A032804D1686AC16889
:1037100009B12046884780212046FFF77FFC2046DC
:1037200000F02FFC287B012804BF00212973002012
:1037300032BD287A0328FAD1686A4269002AF6D095
:10374000204690470100F2D032BD10B5044604F582
:103750002570012101720022026000236360026172
:10376000416A09B9032010BD806A00281CBF4A685D
:10377000002A02D000212046904740230022002149
:103780002046FFF73AFC04F5B07001214022818009
:1037900002604023002280212046FFF72EFC0120FA
:1037A000A08440212162002010BD017400207047D8
:1037B00000F52770042201784170027000207047E4
:1037C00000F527700178042904BF417801700020BA
:1037D000704780B500F52772D16909B9032002BD91
:1037E0001278032A02D1C96901B18847002002BDBD
:1037F00080B500F52773DA690AB9032002BD1B788A
:10380000032B02D1126A02B19047002002BD80B59D
:1038100000F52773DA690AB9032002BD1B78032B70
:1038200002D1526A02B19047002002BD00207047C9
:1038300080B500F5277101220A70CA691AB1416882
:103840005268C9B29047002002BD000010B500F0D8
:103850009FFB00F05DF800F0B5FB00F025FC00F0E8
:10386000FCFD01F03DF8624C0122102100F04DF802
:103870000122202100F049F80122402100F045F802
:103880000122802100F041F801224FF4807100F004
:103890003CF85848584C01F05AF800F088F857495D
:1038A0000860012204F22461554801F0AFFA0122B8
:1038B00004F64C41534801F0A9FA41F27420211852
:1038C0000122514801F0A2FA41F69C002118012280
:1038D0004E4801F09BFA41F6C460211801224C4881
:1038E00001F094FA42F2EC4021180122494801F01B
:1038F0008DFA012210214848FFF7C2FDFEF78CFE29
:1039000000F05EFE00F02CFEF8E72046FFF7B8BDA1
:1039100080B592B0302106A8FFF7C8FC142101A899
:10392000FFF7C4FC002000904FF480333B4801684F
:1039300041F0805101600021006800F0805000904B
:10394000009837480091026842F4804202600122E8
:10395000006800F48040009006A8009906920221B9
:103960004FF480020C910D920421A8220E910F9227
:103970000221072207931091119201F0E1FC08B196
:1039800072B6FEE702210291002203920F204FF44B
:10399000A051019004914FF480520592052101A895
:1039A000FFF7AAFB08B172B6FEE713B000BD38B549
:1039B0001C4D4FF4805100F037F8002400B9012469
:1039C0004FF4005100F030F808B944F002044FF40D
:1039D000804100F029F808B944F004044FF4004194
:1039E00000F022F808B944F00804204632BD000077
:1039F0000000024020460020BC020020C4470020F6
:103A0000AC460020F046002034470020244500202A
:103A100068460020784700200008024040380240F5
:103A200000700040000C02402846FFF723BD72B62C
:103A3000FEE7000038B50D4D0D4B2A7804464FF4D3
:103A40007A711868B1FBF2F2B0FBF2F0FFF774FD87
:103A500050B9102C08D2002221464FF0FF30FFF75A
:103A600043FDAC60002032BD012032BD00000020CB
:103A70000C00002000B500BF130096469446103994
:103A800028BFA0E80C50FAD85FEA417C28BF0CC0E0
:103A900048BF40F8042BC90728BF20F8022B48BFB5
:103AA00000F8012B00BD00004178007840EA0120B9
:103AB000704700002DE9FC410E460546307810F0B5
:103AC00060004FF0000805F527770AD0202818BFBE
:103AD000402840F0DC80FA69936828469847804681
:103AE0001DE171780929F4D8DFE811F0F4000D0127
:103AF000D1000701D10084000A00D100E2009E003D
:103B0000ADF800807088010A01296DD002295FD0CC
:103B1000032925D006291BD0072904BF287C0028AB
:103B20006DD1F9690A6B6846904707214170F288A8
:103B3000002A00F0F180BDF8001000292BD091423E
:103B400088BF1146ADF800100146BDF80020D0E056
:103B5000287C002853D1F9694A6B68469047E6E70C
:103B6000C0B205284BD8DFE800F02B231B130B0352
:103B7000B8698269002A0ED0287C69469047D6E74A
:103B8000B8694269002A06D0287C69469047CEE78A
:103B9000B8690269002A7AD0287C69469047C6E74E
:103BA000B869C268002A72D0287C69469047BEE78F
:103BB000B8698268002A6AD0287C69469047B6E7CF
:103BC000B8694268002A62D0287C69469047AEE70F
:103BD000287CF9690028684603D18A6A9047022147
:103BE000A4E7CA6A9047FAE7BA69287C136869466D
:103BF00098479CE7B088002804BFF088002846D189
:103C00007488802C43D23878032804F07F043ED097
:103C1000BC7021462846FFF71CFA284600F0AAF996
:103C200054BB012139707AE03E4C708820702178B5
:103C30000846022802D300F07BF836E03A78022AE0
:103C40001CD0032A2CD129B902203870696000F0F9
:103C50006CF861E0696888425ED000F065F8217810
:103C600069602846FFF7AEFC5FEA000854D000F018
:103C70005FF8696800F058F802200FE000294BD087
:103C800068602846FFF79EFC5FEA000802D000F05B
:103C90004FF844E0284600F06DF9032038703EE00C
:103CA00000F046F8217800F040F84FF0030836E0C5
:103CB000F0880128EBD13978491E012904D9891EE1
:103CC000E5D10122291D14E0C5F80880012205F183
:103CD00008010EE03878401E0228D8D8F288022A5F
:103CE000D5D10121E960B86808B10321E96005F187
:103CF0000C01284600F01CF911E0708801280ED153
:103D00000121B96008E03878401E0228BFD87288C7
:103D1000012A04D1C7F80880284600F02BF9404654
:103D2000BDE8F681D0470020C9B22846FFF754BC51
:103D300031462846CEE070B50E4604463078002560
:103D400010F060001CBF2028402815D104F5277210
:103D50001078401E02280FD83379022B0CD2D2697A
:103D60009368204698470546F08840B9280006D158
:103D7000204600F0FFF802E0204600F0ABF82846AD
:103D800070BD2DE9F0410E4680463178307900242F
:103D900011F0600108F5277704D0202939D0402997
:103DA00064D136E0717800293AD0012914D0032972
:103DB0005CD13A78022A15D0032A57D1718839B9D3
:103DC000002818BF802803D0F18809B900F069F8ED
:103DD000404600F0CFF84DE03978022902D003299F
:103DE0000AD043E0002818BF80283FD000F059F8DF
:103DF000802100F057F83DE0718800293AD110F099
:103E00007F0203D001464046FFF70EF9404600F01E
:103E1000B1F8FA699368314640469847044629E06C
:103E2000142200F07F013F78514308EB0103022F79
:103E300003F5AA7500F0800102D0032F0ED015E023
:103E4000002818BF802811D109B103F114052C6096
:103E500002222946404600F06BF80BE000F00F0705
:103E600012FB07F2424441B1918C79B93146404688
:103E700000F030F82046BDE8F081B2F86411002966
:103E8000F4D0002818BF802803D1E0E703F114051F
:103E9000F7E701464046FFF7CDF800B10120286062
:103EA000D6E701464046FFF7B9B838B50D46044697
:103EB00028782070A81C697861702D1DFFF7F4FD2B
:103EC00060802846FFF7F0FDA080A81CFFF7ECFDFE
:103ED000E08031BD10B504468021FFF79FF82046F1
:103EE000BDE810400021FFF799B800280B4600D12B
:103EF000704770B50021044600E0491C14F8015BCE
:103F0000002DFAD10906C90D891C1180117819708C
:103F100003225A70022207E010F8011BD4B2521C8F
:103F20001955D6B2521C9D5501780029F4D170BDA7
:103F300080B513460222C0F894228361C36101E078
:103F400080B513460A460021FFF789F8002002BD1C
:103F500080B513460322C0F8942200F5AC721360BA
:103F6000536001E080B513460A460021FFF77DF853
:103F7000002002BD80B50421C0F894120023002265
:103F8000E1E780B50521C0F8941200230022ECE798
:103F900080B50B48016841F400710160026842F489
:103FA00080620260016841F4807101600320FFF7C4
:103FB0008EFA0F20FFF73EFD01F050FB002002BDFE
:103FC000003C024038B586B01422002101A801F05F
:103FD00061FB002129482A4D2A4C0091026842F0D9
:103FE000040202600022016801F0040100F04EF8B2
:103FF00043F080030360016801F0800100F046F89F
:1040000043F001030360016801F0010100F03EF894
:1040100043F002030360016801F00201009100997E
:1040200000924FF4F871036843F0080303600068DE
:1040300000F00800009000982846FFF721FA0122BE
:1040400010212046FFF71CFA4FF4F87100F023F816
:104050002846FFF72FF9102100F01DF82046FFF742
:1040600029F94FF47C40002101900291039101A9AC
:104070000548FFF71FF907B030BD00003038024097
:104080000000024000080240000C0240009100992C
:10409000009203687047019101220021039104916D
:1040A000029201A97047000010B586B010220021CD
:1040B00002A801F0EFFA08220021684601F0EAFAAE
:1040C000214C2248206042F2CF0140F2E73000222A
:1040D000E0606160A2602261A261204600F02AFCDB
:1040E00008B1FFF7A4FC4FF48050029002A92046CB
:1040F00000F034FD08B1FFF79AFC00210091019116
:104100002046694601F0D0FA08B1FFF790FC06B0EE
:1041100010BD00680D49884200D0704780B500226C
:104120000B480092016841F0040101600021006821
:1041300000F00400009000981E20FFF7D5F9BDE8BC
:1041400002401E20FFF7EDB9204600200008004085
:104150004038024080B5DFF8C406DFF8C41600F02E
:1041600031F800B10AE001BD80B5DFF8B806DFF82C
:10417000B81600F027F800B100E001BDBDE801402D
:10418000FFF755BC80B5DFF8A406DFF8A416016080
:104190004FF4E13200230C2142608360C36003616D
:1041A00041618361C36100F0D5FD00B1E6E701BD67
:1041B00080B5DFF88006DFF8801600F003F800B164
:1041C000DCE701BD01604FF4165200230C21426070
:1041D0008360C360036141618361C36100F0BABD64
:1041E00080B5DFF85806DFF85816FFF7EBFF00B18F
:1041F000C4E701BD80B5DFF84C06DFF84C16FFF7C9
:10420000E1FF00B1BAE701BD10B586B00446142243
:104210000021684601F03EFA2368DFF80426DFF843
:104220002C06DFF82C16934228D1002305930A6947
:1042300042F400220A610A6902F400220592059AFA
:10424000059303220C6844F001040C600223096802
:1042500001F001010591059900920193002202925B
:1042600003230822039304926946FFF723F80022F0
:1042700000213420FFF738F93420B9E000F0E7F8E6
:1042800033D1002005900B6943F480130B610023A8
:10429000086900F4801005900598059300F0ACF8CB
:1042A0000598059302230C6844F008040C60086824
:1042B00000F0080005904FF4805100F0A6F80221AC
:1042C0000191002202920420032100900391082210
:1042D00004926946DFF87C05FEF7ECFF002200211E
:1042E0003520FFF701F9352082E0DFF84445A3428D
:1042F00017D1002205924B6943F010034B61002354
:104300004A6902F010020592059A05934FF4C062C3
:1043100000F088F8002200212520FFF7E5F825208D
:1043200066E0DFF81445A34216D1002205920B691E
:1043300043F400330B6100230A6902F40032059252
:10434000059A05930C2200F06DF80022002126202A
:10435000FFF7CAF826204BE0DFF8E40483422BD1B4
:1043600000220592086940F480200861086900F481
:10437000802005900598059202220B6843F0020305
:104380000B60086800F0020005904FF4406105984A
:10439000DFF8C40400910192002102910322072159
:1043A000049103926946FEF785FF00220021272031
:1043B000FFF79AF827201BE0DFF88C04834219D11D
:1043C00000230593486940F020004861486900F0E7
:1043D0002000059005980593022300F00DF8C021F8
:1043E00000F013F8002200214720FFF77DF8472056
:1043F000FFF797F806B010BD0C6844F004040C6099
:10440000086800F00400059070470598009101933A
:104410000021029103230821049103936946104669
:10442000FEF748BF0C6844F001040C6002230968E1
:1044300001F0010105910599009201930022029279
:1044400003230722039304926946FEF733BFDFF884
:10445000D843DFF80824A342704710B5FFF77AFE6F
:10446000FFF782FEFFF78EFEFFF7A2FEFFF7B8FE12
:10447000FFF7C0FEDFF8A403DFF8B013DFF8B423C2
:104480004164826480650123DFF8B013DFF8942370
:104490004165026542F2DC22DFF8A813C164002402
:1044A000DFF8BC03811801220B604C6064238C6030
:1044B000CB6041F28C61014401230A604C606422AC
:1044C0008C60CA6041F26401084444608460036007
:1044D000C26010BDF8B50546DFF854132868DFF850
:1044E0008043884214D104F5027600F093F902006B
:1044F00032D004F224473946304601F06FF982B2D7
:104500003946284600F061FC0120C4F81004F1BDD2
:10451000DFF82413884208BF04F5C564E3D0DFF850
:104520002013884208BF04F54564DCD0DFF8F012A0
:10453000884203D141F278200444D4E7DFF8E8123E
:10454000884208BF04F5C554CDD0DFF8FC1288427C
:1045500005D141F6C860EFE70021C4F81014F1BDA1
:104560002DE9F8430025DFF8B44204EB85004FF451
:10457000C562DFF8EC12466C6A438F1807F50278C3
:10458000404601F0F5F8002804BFD7F810040028D1
:1045900011D1404601F0CEF8024607F224494946BF
:1045A000404601F01BF982B24946304600F00DFC4E
:1045B0000120C7F810046D1C062DD6DBBDE8F18381
:1045C0002DE9FC41DFF89842204601F0D1F8D0B93E
:1045D000204601F0AFF8054629460FF28C2001F085
:1045E0001BF900260DE06946204601F0E6F89DF92A
:1045F0000010062000F0DAF89DF8000001F020F924
:10460000761CAE42EFD304F5C567384601F0B0F82A
:104610000FF2742590B9D4F8400A78B1384601F009
:1046200089F800F078F84FF0000805E06946384650
:1046300001F0C3F808F10108B045F7D304F5456768
:10464000384601F095F888B941F26801605868B1C0
:10465000384601F06FF800F05EF8002504E0694686
:10466000384601F0AAF86D1CB542F8D341F2782023
:104670002618304601F07CF8A0B941F290616058EC
:1046800080B100F0C7F8054629460FF21C2001F062
:10469000C3F8002704E06946304601F08EF87F1C1D
:1046A000AF42F8D304F5C556304601F061F8A0B921
:1046B00041F6B841605880B100F0ACF80546294693
:1046C0000FF2002001F0A8F8002704E06946304608
:1046D00001F073F87F1CAF42F8D341F6C86025188B
:1046E000284601F045F8A0B942F2E021605880B1B7
:1046F000284601F01FF8044621465A4801F08CF87C
:10470000002604E06946284601F057F8761CA642C8
:10471000F8D3BDE8F38106463146284601F07CB85F
:10472000F8B50446494D002280212846FEF7A8FE30
:1047300020683F494A4E884219D106F2144738682A
:1047400010B1FDF769FFB860304696F8241601F005
:1047500024F8012206F22461204600F057FB284687
:10476000BDE8F84001228021FEF78ABEF1BD324942
:10477000884208BF06F5C566DFD03149884208BFC8
:1047800006F54566D9D02649884203D141F2782002
:104790000644D2E72449884208BF06F5C556CCD066
:1047A00029498842E2D141F6C860F1E738B50C46A4
:1047B0004FF4C5622A4910FB02F20A4402F5027561
:1047C000284600F0DDFF28B9E1B22846BDE83440B4
:1047D00000F0E3BF31BD70B5FDF71EFF04460025B4
:1047E0004FF4C5621E486A43104400F21446316813
:1047F00059B1716849B9B168F268611A914204D33C
:1048000000F0B6FF08B9012070606D1C062DE7DBD3
:1048100070BD2644304600F08DBF000024450020C6
:10482000004C00406846002000500040AC4600208C
:1048300000100140F04600200044004034470020B2
:10484000004800407847002000140140000002406A
:1048500030380240000C02400004024000080240D0
:10486000BC02002094660008554152545F455350E5
:1048700031323A205F72656365697665436F756EA4
:10488000743D256400000000554152545F54454E6C
:1048900053494F494E3A205F7265636569766543B7
:1048A0006F756E743D256400554152545F55563AFC
:1048B000205F72656365697665436F756E743D252B
:1048C00064000000554152545F445553543A205FF0
:1048D00072656365697665436F756E743D25640026
:1048E00010B5104C104900222046FEF745FE08B1D5
:1048F000FFF79DF80D492046FEF751FE08B1FFF77E
:1049000096F80B49204601F0E1F808B1FFF78FF85F
:104910002046FEF755FE18B1BDE81040FFF787B8F6
:1049200010BD00BFB43D00203C0100201C00002051
:104930002801002038B5040001D1012032BD00F06B
:1049400065F818B900F068F9FFF7E3FB3DE090F86F
:104950003D10012901D001207047022180F83D104F
:104960000168CA6842F00102CA600068DFF880107E
:10497000884218BFB0F1804F17D0DFF87810884216
:104980001CBFDFF8742090420FD0DFF8701088420F
:104990001CBFDFF86C20904207D0DFF86810884217
:1049A0001CBFDFF86420904209D1816801F0070143
:1049B000062908D0016841F00101016003E00268A6
:1049C00042F0010202600020704702206870211D41
:1049D000206800F025F90120A872A870E8702871FD
:1049E0006871A871E871287268726870002032BD21
:1049F000000001400004004000080040000C00409E
:104A000000040140004001400018004004F13C0552
:104A10006878704710B50446206801698A0715D583
:104A2000C1688A0712D56FF0020101610122227765
:104A3000806910F0030F204602D001F075F803E002
:104A400001F073F800F087F80020207720680169F2
:104A50004A0715D5C1684A0712D56FF004010161F4
:104A600002222277806910F4407F204602D001F0B4
:104A70005BF803E001F059F800F06DF800202077B2
:104A8000206801690A0715D5C1680A0712D56FF0B9
:104A90000801016104222277C06910F0030F20464B
:104AA00002D001F041F803E001F03FF800F053F8C4
:104AB0000020207720680169CA0615D5C168CA069A
:104AC00012D56FF01001016108222277C06910F43D
:104AD000407F204602D001F027F803E001F025F8DE
:104AE00000F039F80020207720680169CA0708D54E
:104AF000C168CA0705D56FF001010161204601F0C8
:104B000037F8206801690A0608D5C1680A0605D584
:104B10006FF080010161204601F044F820680169CE
:104B20004A0608D5C1684A0605D56FF04001016103
:104B3000204601F038F8206801698A060AD5C16864
:104B40008A0607D56FF0200101612046BDE81040BC
:104B500001F02AB810BD204601F027B870B506460E
:104B600006F13C0500242878012801D1022070BDFF
:104B70000120287002226A70DFF83C0132689368D5
:104B8000034093600868020018BF102830D0202826
:104B900018BF30282CD0402826D0502819D06028A3
:104BA0001BD0702806D0B0F5805F27D0B0F5005F2D
:104BB00007D022E000F02BF83068816841F07701DF
:104BC00005E000F024F83068816841F4804181609C
:104BD00014E000F018F850210BE0CA68496830680A
:104BE00000F091F8602104E000F00DF8402100E0B1
:104BF0000146306800F099F800E001240120687057
:104C000000F00AF870BDCA68496830686CE0CB688B
:104C10004A688968306890E0002129702046704712
:104C2000F0B5264C0568264B264E274FDFF89CC072
:104C3000A04218BFB0F1804F07D0604518BFB842FE
:104C400003D0B04218BF98420DD14A6825F07005D4
:104C50001543A04218BFB0F1804F17D060451CBF6C
:104C6000B842B04212D098421CBF194A90420DD0AF
:104C7000184EB0421CBF184A904207D0174EB0429F
:104C80001FBF174A9042174EB04203D1CA6825F49D
:104C9000407515434A6925F0800515430560A0421B
:104CA0008D68C5620A68826212BF98420969016311
:104CB00001224261F0BD00008800FFFF00000140BA
:104CC00000040140000C00400008004000040040C7
:104CD00000400140004401400048014000180040ED
:104CE000001C00400020004010B5036A046A6408FC
:104CF0006400046223F00A03846924F0F00444EAA7
:104D00000214846123E010B5036A23F010030362E8
:104D10008369046A23F4704343EA023324F0A00455
:104D2000836144EA0114046210BD826822F07002BB
:104D3000114341F007018160704710B5846824F485
:104D40007F442143114341EA0321816010BD19438F
:104D5000016210BD38B5040001D1012032BD00F060
:104D600017F808B900F018F800F01BF800F023F865
:104D7000FFE7416100F001F832BD2068C16841F4ED
:104D80000051C1600020686020216970A9707047DF
:104D900004F13C0568787047002129702046FFF730
:104DA00033BA242068702068C16821F40051C160C2
:104DB000204600F061BA2068016921F49041016148
:104DC0002068416921F02A01704710B500F13C03C9
:104DD0005C78202C18D109B1140001D1012010BD3C
:104DE0001C78012C10D001241C7001628284C284C2
:104DF0000021596021225A7019700068C26842F07F
:104E00008002C260002010BD022010BD38B500F144
:104E100030039C7B202C0FD109B1140001D101205B
:104E200032BD1C7B012C07D001241C7300251D60A2
:104E3000BDE8384000F064B9022032BD216801F1BC
:104E4000140252E8001F206800F1140321F0400111
:104E500043E80010002870477CB5044621680B68C1
:104E6000CD684A6913F00F0007D1980661D5AA06EC
:104E70005FD52046BDE8764094E1D00702D415F412
:104E8000907F56D0D80705D5E90503D5206C40F0B2
:104E900001002064580705D5D10703D5206C40F0E8
:104EA00002002064980705D5D10703D5206C40F097
:104EB00004002064180707D5A90601D4D00703D53C
:104EC000216C41F008012164206C002830D0980644
:104ED00004D5A90644BF204600F064F92068406963
:104EE000216C0A0701D440061DD5204600F02FF999
:104EF00020684169480611D5FFF7A0FFFCD1A06BDF
:104F000060B10FF295210165A06B00F08BFE0028C7
:104F10000ED0A06B016DBDE87C4008472046BDE87F
:104F2000764000F0A4BE204600F0A1FE00202064E0
:104F300073BD206B012804F13D0240F08380D80648
:104F400000D5EE0640F17E80002300930D680095A9
:104F50004B6800930098496948063CD5A16B0868E6
:104F6000406880B20028E3D0A38D9842E0DAE08563
:104F7000C869B0F5807F2AD000F0A6F8236803F155
:104F80000C0521F4807145E800100028F4D100F0F0
:104F9000A1F8490800F11405490045E8001000286F
:104FA000F5D100F097F800F1140521F0400145E833
:104FB00000100028F5D1202050700021216300F05E
:104FC0008FF800F097F8FAD1A06B00F0EFFDA18DFB
:104FD000E08D091A30E0A08DE18D411AE08D0028A6
:104FE0001CBF88B2002868D0206800F10C0353E889
:104FF000003F00F10C0623F4907346E800300028CF
:10500000F2D1206800F05AF800F114065B0046E87F
:1050100000300028F5D12020507000222263206843
:1050200000F10C0252E8002F00F10C0522F01002F2
:1050300045E800200028F2D12046BDE87C4089B236
:1050400000F016BE180629D52E0627D5107821287F
:1050500033D1A068B0F5805F04BF2069002808D173
:10506000206A0288C2F308024A60206A811C216219
:1050700004E0206A421C226200784860E08C401EF6
:10508000E08480B2C8B92068C16821F08001C160A5
:105090002068C16841F04001C16073BD58060CD55D
:1050A0006B060AD5C86820F04000C8602021117046
:1050B0002046BDE87640FFF70DBA73BD00F114033A
:1050C00053E8003F5B087047216801F10C0050E88D
:1050D000001F7047206800F1140151E8001F70475D
:1050E000206800F10C0151E8001F00F10C0370472B
:1050F00002F10C0321F0100143E800100028704772
:1051000081628285C28500F13C0100224A6022232F
:105110008B700A700168CB6843F48073CB600168C0
:105120004A6942F001024A610068C16841F0200109
:10513000C1600020704744E80021002970470168E1
:1051400001F10C0252E8002F01F10C04704710B578
:10515000FFF7F5FF22F49072FFF7EDFFF8D100F0B2
:105160000BF8016B012901D100F071F8202180F8C2
:105170003E100022026310BD016801F1140252E8E2
:10518000002F520801F11404520044E800210029C4
:10519000F2D1704700000000806B0021C185C184FE
:1051A00000F065BD1CB590F83E1022294DD18168F4
:1051B000826AB1F5805F0AD1016969B903685968EB
:1051C000C1F308011180826A911C81620FE00029FD
:1051D00004BF0169002902D10368596803E001682E
:1051E000496801F07F011170816A4A1C8262C18D99
:1051F000491EC18589B231BB0168CA6822F020020C
:10520000CA600168CA6822F48072CA6001684A698B
:10521000520852004A6100F029F812D100210163BE
:1052200000F015F802681168CB0606D5002400943A
:1052300013680093526800920099818D00F018FD68
:1052400001E0FFF76DFA002016BD022016BD0268CE
:1052500002F10C0151E8002F036803F10C0422F065
:10526000100244E800210029F1D17047202180F884
:105270003E10026B012A704770B50446226811691E
:10528000E06821F4405101431161D3682648A168C8
:10529000034020690B4361690343E0690B43034307
:1052A000D3605169A06921F44071014351611F49E4
:1052B0008A421CBF1E48824202D1FDF7AEFF01E0C8
:1052C000FDF7A3FF62682568E46964261921B4F537
:1052D000004FA1FB000112D1D30F5200FCF798FB45
:1052E00000F028F8F60032366420B6FBF0F04200F9
:1052F00002F4F87202EB011200F0070010E0930FC5
:105300009200FCF785FB00F015F836013236642078
:10531000B6FBF0F000F0F00202EB011200F00F001B
:105320008018A86070BD0000F369FFFF0010014005
:10533000001401406421B0FBF1F106FB1106704737
:105340002DE9F843040016D02078DFF80063C10788
:1053500013D5B06800F00C00042807D0B06800F046
:105360000C0008283DD1706841023AD530688103AD
:1053700003D56068002800F063812078B44F81076E
:1053800019D5B06810F00C0F07D0B06800F00C0011
:1053900008285BD17068410258D43068810703D572
:1053A000E068012840F04C813168206921F0F80163
:1053B00041EAC00131602178080779D56069A549C3
:1053C000002868D001220A60FDF726F90546706FB3
:1053D00081076DD4FDF720F9401B0228F7D903207F
:1053E00031E16068B0F5803F04D1306840F480302E
:1053F000306011E0B0F5A02F306806D140F4802075
:105400003060316841F4803105E020F48030306054
:10541000316821F480213160606858B1FDF7FCF8F3
:10542000054630688103A8D4FDF7F6F8401B6528CF
:10543000F7D3D4E7FDF7F0F80546306881039CD533
:10544000FDF7EAF8401B6528F7D3C8E7E068A8B184
:1054500001213960FDF7E0F805463068810705D481
:10546000FDF7DAF8401B0228F7D9B8E73068216960
:1054700020F0F80040EAC10030609CE73860FDF79A
:10548000CBF805463168880795D5FDF7C5F8401B70
:105490000228F7D9A3E70860FDF7BEF80546706F4C
:1054A000810705D5FDF7B8F8401B0228F7D996E724
:1054B000207841075FD5306C0025C1000AD40095E3
:1054C0000125316C41F080513164306C00F0805026
:1054D00000900098DFF88081D8F80000C10513D44F
:1054E000D8F8000040F48070C8F80000FDF794F888
:1054F0008146D8F80000C10506D4FDF78DF8A0EB71
:1055000009000228F5D96AE7A068012805D0052816
:10551000306F06D140F004003067306F40F001007A
:1055200005E0400840003067306F20F0040030672D
:1055300041F28938A06860B1FDF76EF88146306F9E
:10554000810713D4FDF768F8A0EB09004045F6D3B6
:1055500045E7FDF761F88146306F810706D5FDF715
:105560005BF8A0EB09004045F6D338E71DB1306C7D
:1055700020F080503064A069002863D0B16801F049
:105580000C0108293AD002282AD100203866FDF7FC
:1055900043F805463068810105D5FDF73DF8401B0D
:1055A0000228F7D91BE7E069216A626A0843A16A09
:1055B000490840EA8210491E40EA0140E16A40EA97
:1055C0000160706001203866FDF726F804463068F7
:1055D000810137D4FDF720F8001B0228F7D9FEE639
:1055E00000203866FDF718F804463068810129D597
:1055F000FDF712F8001B0228F7D9F0E601281FD0AA
:105600007068E26900F48001914202BF00F03F013E
:10561000226A914201BF47F6C0710140626AB1EB54
:10562000821F0DD1A26A520800F44031521EB1EB24
:10563000024F02BF00F07060E16AB0EB016F01D071
:10564000012000E00020BDE8F28300BF00380240E6
:1056500000004742800E47420070004081B00020A9
:10566000009000220A48416841F48041416041684D
:1056700001F48041009100990092036843F0805347
:105680000360006800F080500090009801B07047FF
:105690004038024010B5044610460A4601462046EE
:1056A00000F0E8FA204610BD70B500F13C031A780E
:1056B000012A01D1022070BD01221A7002245C70FF
:1056C00005686E68AC680A6826F0700616436E605E
:1056D00002681448824218BFB2F1804F11D01048BE
:1056E00082421CBF104DAA420BD00C4882421CBF04
:1056F0000E4DAA4205D0084882421CBF0C4DAA425A
:1057000004D1486824F08004044394600121597056
:105710000020187070BD000000400140000C0040E7
:105720000004004000000140000800400004014067
:1057300000180040014600204A680968914204D0E0
:10574000881A8A4228BF00F5007070470168491C1A
:10575000B1F5007F28BF002101600846704741680D
:10576000491CB1F5007F28BF002141600846704701
:1057700001684068814201D10120704700207047D4
:1057800001684068491CB1F5007F28BF00218842AC
:1057900001D1012070470020704770B504460D46C6
:1057A000FFF7EEFF002630B920682044012605727D
:1057B0002046FFF7CBFF304670BD70B504460D465E
:1057C000FFF7D6FF002638B9606820440126017A29
:1057D00029702046FFF7C3FF304670BD70B500F05A
:1057E00017F8864288BF064600200DE061684A1C13
:1057F000214462600B7A05F8013B6168B1F5007FD6
:1058000024BF00226260401CB042EFD3304670BD1E
:1058100004460D4616468DE70EB4C0B5024603A8F1
:1058200000210190009101AB0121044878440C3023
:10583000FAF7AAFC06BC5DF810FB00BF170F0000CA
:10584000014900F04ABA00BFD4010020F8B505466E
:105850004FF40770FDF713FC040005F52F7602D115
:1058600030600220F2BD346005F14C07287C40B95D
:105870004FF4007300F032F8012028874FF40073D2
:1058800005E0402300F02AF8012028874023022267
:1058900001212846FDF7B1FB0120A5F87801102170
:1058A00079800823032282212846FDF7A6FB0120E8
:1058B000388071680A68904704F50171002008611A
:1058C0004861287C0A6800280CBF4FF4007340230D
:1058D00001212846FDF7C9FB0020F2BD02228121EB
:1058E0002846FDF78ABB38B504468121FDF790FBB9
:1058F00004F138050020288001212046FDF788FBAF
:105900000020A4F8780182212046FDF781FB0020C9
:10591000A882E88204F52F74206838B16068416875
:1059200088472068FDF7B8FB00202060002032BDCA
:10593000F8B5054605F527730E461C6A00218DF85B
:105940000010ADF8021000270CB90320F2BD317829
:1059500011F0600024D020283ED1F2887078D2B1B6
:1059600009060DD55B6AD3F808C02146E047F288E6
:10597000082A28BF072221462846FEF7D9FA30E038
:1059800004F500710870F08848702146F2882846B6
:10599000FEF7DEFA25E05B6A9C683146A04720E00E
:1059A000707830B101281CD00A2809D00B2810D0FB
:1059B00012E0197803290FD102220DF1020104E04F
:1059C0001878032808D1012269462846FEF7B0FA64
:1059D00007E01878032804D031462846FEF77AFA03
:1059E00003273846F2BDF8B5044604F52F739E68C8
:1059F0001D680DB90320F2BD0F46142010FB07F0FF
:105A000004EB000CDCF8180080B11C225743F2199B
:105A1000526CB0FBF2F602FB160038B9CCF8180055
:105A2000002300222046FDF71AFB0BE005F502706B
:105A30000022C2605B681B6923B10A46006805F555
:105A4000047198470020F2BD70B500F52F752C68E1
:105A50000CB9032070BD04F50176FDF70CFBB060B6
:105A600004F503716A683068D3689847002070BDF8
:105A700010B500F52F70016809B9032010BD436807
:105A8000002B1EBF01F500742078FF2804D0627837
:105A90009B689847FF202070002010BD43210180A3
:105AA0000648704743210180054870474321018023
:105AB000044870470A21018003487047980000207D
:105AC00054000020DC0000201000002009B9032051
:105AD0007047C0F8C01200207047D0F8BC0208B967
